{
  "contractName": "Certify",
  "abi": [
    {
      "constant": true,
      "inputs": [],
      "name": "testWord",
      "outputs": [
        {
          "name": "",
          "type": "string"
        }
      ],
      "payable": false,
      "stateMutability": "view",
      "type": "function"
    },
    {
      "constant": true,
      "inputs": [
        {
          "name": "",
          "type": "address"
        }
      ],
      "name": "allOrgs",
      "outputs": [
        {
          "name": "",
          "type": "address"
        }
      ],
      "payable": false,
      "stateMutability": "view",
      "type": "function"
    },
    {
      "constant": true,
      "inputs": [
        {
          "name": "",
          "type": "address"
        }
      ],
      "name": "allUsers",
      "outputs": [
        {
          "name": "",
          "type": "address"
        }
      ],
      "payable": false,
      "stateMutability": "view",
      "type": "function"
    },
    {
      "inputs": [],
      "payable": false,
      "stateMutability": "nonpayable",
      "type": "constructor"
    },
    {
      "anonymous": false,
      "inputs": [
        {
          "indexed": false,
          "name": "_from",
          "type": "address"
        },
        {
          "indexed": false,
          "name": "addr",
          "type": "address"
        }
      ],
      "name": "OrgCreated",
      "type": "event"
    },
    {
      "anonymous": false,
      "inputs": [
        {
          "indexed": false,
          "name": "_from",
          "type": "address"
        },
        {
          "indexed": false,
          "name": "addr",
          "type": "address"
        }
      ],
      "name": "UserCreated",
      "type": "event"
    },
    {
      "constant": false,
      "inputs": [],
      "name": "setTestWord",
      "outputs": [
        {
          "name": "",
          "type": "string"
        }
      ],
      "payable": false,
      "stateMutability": "nonpayable",
      "type": "function"
    },
    {
      "constant": true,
      "inputs": [],
      "name": "viewTestWord",
      "outputs": [
        {
          "name": "",
          "type": "string"
        }
      ],
      "payable": false,
      "stateMutability": "view",
      "type": "function"
    },
    {
      "constant": true,
      "inputs": [
        {
          "name": "identifier",
          "type": "address"
        }
      ],
      "name": "viewUsersName",
      "outputs": [
        {
          "name": "",
          "type": "string"
        }
      ],
      "payable": false,
      "stateMutability": "view",
      "type": "function"
    },
    {
      "constant": true,
      "inputs": [
        {
          "name": "identifier",
          "type": "address"
        }
      ],
      "name": "viewUsersCertificates",
      "outputs": [
        {
          "name": "",
          "type": "address[]"
        }
      ],
      "payable": false,
      "stateMutability": "view",
      "type": "function"
    },
    {
      "constant": true,
      "inputs": [
        {
          "name": "user",
          "type": "address"
        }
      ],
      "name": "viewUsersCertificateNames",
      "outputs": [
        {
          "name": "",
          "type": "string[]"
        }
      ],
      "payable": false,
      "stateMutability": "view",
      "type": "function"
    },
    {
      "constant": false,
      "inputs": [
        {
          "name": "identifier",
          "type": "address"
        }
      ],
      "name": "searchForUser",
      "outputs": [
        {
          "name": "",
          "type": "address"
        }
      ],
      "payable": false,
      "stateMutability": "nonpayable",
      "type": "function"
    },
    {
      "constant": false,
      "inputs": [
        {
          "name": "_name",
          "type": "string"
        },
        {
          "name": "_username",
          "type": "string"
        }
      ],
      "name": "createNewUser",
      "outputs": [
        {
          "name": "",
          "type": "address"
        }
      ],
      "payable": false,
      "stateMutability": "nonpayable",
      "type": "function"
    },
    {
      "constant": false,
      "inputs": [
        {
          "name": "_name",
          "type": "string"
        }
      ],
      "name": "createNewOrg",
      "outputs": [
        {
          "name": "",
          "type": "address"
        }
      ],
      "payable": false,
      "stateMutability": "nonpayable",
      "type": "function"
    },
    {
      "constant": false,
      "inputs": [
        {
          "name": "user_address",
          "type": "address"
        }
      ],
      "name": "getUser",
      "outputs": [
        {
          "name": "",
          "type": "address"
        }
      ],
      "payable": false,
      "stateMutability": "nonpayable",
      "type": "function"
    },
    {
      "constant": true,
      "inputs": [
        {
          "name": "org_address",
          "type": "address"
        }
      ],
      "name": "getOrg",
      "outputs": [
        {
          "name": "",
          "type": "address"
        }
      ],
      "payable": false,
      "stateMutability": "view",
      "type": "function"
    },
    {
      "constant": true,
      "inputs": [],
      "name": "getCurrentOrg",
      "outputs": [
        {
          "name": "",
          "type": "address"
        }
      ],
      "payable": false,
      "stateMutability": "view",
      "type": "function"
    },
    {
      "constant": true,
      "inputs": [
        {
          "name": "identifier",
          "type": "address"
        }
      ],
      "name": "getUserFromAddress",
      "outputs": [
        {
          "name": "",
          "type": "address"
        }
      ],
      "payable": false,
      "stateMutability": "view",
      "type": "function"
    }
  ],
  "bytecode": "0x60806040523480156200001157600080fd5b506040805190810160405280601181526020017f426c6f636b636861696e20617420554349000000000000000000000000000000815250600290805190602001906200005f92919062000066565b5062000115565b828054600181600116156101000203166002900490600052602060002090601f016020900481019282601f10620000a957805160ff1916838001178555620000da565b82800160010185558215620000da579182015b82811115620000d9578251825591602001919060010190620000bc565b5b509050620000e99190620000ed565b5090565b6200011291905b808211156200010e576000816000905550600101620000f4565b5090565b90565b6133bd80620001256000396000f300608060405260043610620000eb576000357c0100000000000000000000000000000000000000000000000000000000900463ffffffff1680631f1f865214620000f0578063234de28114620001345780633ef039841462000178578063408b81ca14620001a85780634dfa3f1814620001d85780635b589c96146200021c57806365fe081614620002605780636c142fd414620002a45780636f77926b14620002d45780637200b23d1462000318578063919632a4146200035c578063c677f82714620003a0578063e14f50d414620003e4578063edbece371462000428578063ef76fb59146200046c575b600080fd5b348015620000fd57600080fd5b506200011c600480360362000116919081019062001212565b6200049c565b6040516200012b919062001604565b60405180910390f35b3480156200014157600080fd5b506200016060048036036200015a919081019062001212565b62000505565b6040516200016f9190620015bc565b60405180910390f35b3480156200018557600080fd5b506200019062000611565b6040516200019f919062001662565b60405180910390f35b348015620001b557600080fd5b50620001c062000664565b604051620001cf91906200163e565b60405180910390f35b348015620001e557600080fd5b50620002046004803603620001fe919081019062001339565b62000706565b60405162000213919062001545565b60405180910390f35b3480156200022957600080fd5b5062000248600480360362000242919081019062001212565b62000801565b60405162000257919062001621565b60405180910390f35b3480156200026d57600080fd5b506200028c6004803603620002869190810190620012af565b62000869565b6040516200029b919062001604565b60405180910390f35b348015620002b157600080fd5b50620002bc62000964565b604051620002cb919062001662565b60405180910390f35b348015620002e157600080fd5b50620003006004803603620002fa919081019062001212565b62000a0a565b6040516200030f919062001621565b60405180910390f35b3480156200032557600080fd5b506200034460048036036200033e919081019062001283565b62000a72565b604051620003539190620015e0565b60405180910390f35b3480156200036957600080fd5b5062000388600480360362000382919081019062001212565b62000dc8565b60405162000397919062001604565b60405180910390f35b348015620003ad57600080fd5b50620003cc6004803603620003c6919081019062001212565b62000dfb565b604051620003db919062001662565b60405180910390f35b348015620003f157600080fd5b506200041060048036036200040a919081019062001212565b62000f07565b6040516200041f919062001621565b60405180910390f35b3480156200043557600080fd5b506200045460048036036200044e919081019062001212565b62000f6f565b60405162000463919062001621565b60405180910390f35b3480156200047957600080fd5b506200048462000fa2565b60405162000493919062001604565b60405180910390f35b6000600160008373ffffffffffffffffffffffffffffffffffffffff1673ffffffffffffffffffffffffffffffffffffffff16815260200190815260200160002060009054906101000a900473ffffffffffffffffffffffffffffffffffffffff169050919050565b60606000808373ffffffffffffffffffffffffffffffffffffffff1673ffffffffffffffffffffffffffffffffffffffff16815260200190815260200160002060009054906101000a900473ffffffffffffffffffffffffffffffffffffffff1673ffffffffffffffffffffffffffffffffffffffff1663487e2db66040518163ffffffff167c0100000000000000000000000000000000000000000000000000000000028152600401600060405180830381600087803b158015620005ca57600080fd5b505af1158015620005df573d6000803e3d6000fd5b505050506040513d6000823e3d601f19601f820116820180604052506200060a91908101906200123e565b9050919050565b60606040805190810160405280600281526020017f4849000000000000000000000000000000000000000000000000000000000000815250600290805190602001906200066092919062000fb4565b5090565b60028054600181600116156101000203166002900480601f016020809104026020016040519081016040528092919081815260200182805460018160011615610100020316600290048015620006fe5780601f10620006d257610100808354040283529160200191620006fe565b820191906000526020600020905b815481529060010190602001808311620006e057829003601f168201915b505050505081565b6000808383620007156200103b565b62000722929190620016ba565b604051809103906000f0801580156200073f573d6000803e3d6000fd5b509050806000803373ffffffffffffffffffffffffffffffffffffffff1673ffffffffffffffffffffffffffffffffffffffff16815260200190815260200160002060006101000a81548173ffffffffffffffffffffffffffffffffffffffff021916908373ffffffffffffffffffffffffffffffffffffffff1602179055507f263d398af3bd0e797da25e9dc29a23286e999826d13a16fca996d1ddd1eb52813382604051620007f29291906200158f565b60405180910390a15092915050565b60008060008373ffffffffffffffffffffffffffffffffffffffff1673ffffffffffffffffffffffffffffffffffffffff16815260200190815260200160002060009054906101000a900473ffffffffffffffffffffffffffffffffffffffff169050919050565b6000808233620008786200104c565b6200088592919062001686565b604051809103906000f080158015620008a2573d6000803e3d6000fd5b50905080600160003373ffffffffffffffffffffffffffffffffffffffff1673ffffffffffffffffffffffffffffffffffffffff16815260200190815260200160002060006101000a81548173ffffffffffffffffffffffffffffffffffffffff021916908373ffffffffffffffffffffffffffffffffffffffff1602179055507f8322aca383e0b6ac5377a0e16ba66f8905a154d8bc387636b2e8dc7aabc1970133826040516200095692919062001562565b60405180910390a150919050565b606060028054600181600116156101000203166002900480601f01602080910402602001604051908101604052809291908181526020018280546001816001161561010002031660029004801562000a005780601f10620009d45761010080835404028352916020019162000a00565b820191906000526020600020905b815481529060010190602001808311620009e257829003601f168201915b5050505050905090565b60008060008373ffffffffffffffffffffffffffffffffffffffff1673ffffffffffffffffffffffffffffffffffffffff16815260200190815260200160002060009054906101000a900473ffffffffffffffffffffffffffffffffffffffff169050919050565b6060600080600090505b8373ffffffffffffffffffffffffffffffffffffffff1663487e2db66040518163ffffffff167c0100000000000000000000000000000000000000000000000000000000028152600401600060405180830381600087803b15801562000ae157600080fd5b505af115801562000af6573d6000803e3d6000fd5b505050506040513d6000823e3d601f19601f8201168201806040525062000b2191908101906200123e565b5181101562000cd857818473ffffffffffffffffffffffffffffffffffffffff1663487e2db66040518163ffffffff167c0100000000000000000000000000000000000000000000000000000000028152600401600060405180830381600087803b15801562000b9057600080fd5b505af115801562000ba5573d6000803e3d6000fd5b505050506040513d6000823e3d601f19601f8201168201806040525062000bd091908101906200123e565b8281518110151562000bde57fe5b9060200190602002015173ffffffffffffffffffffffffffffffffffffffff166317d7de7c6040518163ffffffff167c0100000000000000000000000000000000000000000000000000000000028152600401600060405180830381600087803b15801562000c4c57600080fd5b505af115801562000c61573d6000803e3d6000fd5b505050506040513d6000823e3d601f19601f8201168201806040525062000c8c9190810190620012f4565b908060018154018082558091505090600182039060005260206000200160009091929091909150908051906020019062000cc892919062000fb4565b5050808060010191505062000a7c565b81805480602002602001604051908101604052809291908181526020016000905b8282101562000dbb578382906000526020600020018054600181600116156101000203166002900480601f01602080910402602001604051908101604052809291908181526020018280546001816001161561010002031660029004801562000da65780601f1062000d7a5761010080835404028352916020019162000da6565b820191906000526020600020905b81548152906001019060200180831162000d8857829003601f168201915b50505050508152602001906001019062000cf9565b5050505092505050919050565b60016020528060005260406000206000915054906101000a900473ffffffffffffffffffffffffffffffffffffffff1681565b60606000808373ffffffffffffffffffffffffffffffffffffffff1673ffffffffffffffffffffffffffffffffffffffff16815260200190815260200160002060009054906101000a900473ffffffffffffffffffffffffffffffffffffffff1673ffffffffffffffffffffffffffffffffffffffff166317d7de7c6040518163ffffffff167c0100000000000000000000000000000000000000000000000000000000028152600401600060405180830381600087803b15801562000ec057600080fd5b505af115801562000ed5573d6000803e3d6000fd5b505050506040513d6000823e3d601f19601f8201168201806040525062000f009190810190620012f4565b9050919050565b60008060008373ffffffffffffffffffffffffffffffffffffffff1673ffffffffffffffffffffffffffffffffffffffff16815260200190815260200160002060009054906101000a900473ffffffffffffffffffffffffffffffffffffffff169050919050565b60006020528060005260406000206000915054906101000a900473ffffffffffffffffffffffffffffffffffffffff1681565b600062000faf336200049c565b905090565b828054600181600116156101000203166002900490600052602060002090601f016020900481019282601f1062000ff757805160ff191683800117855562001028565b8280016001018555821562001028579182015b82811115620010275782518255916020019190600101906200100a565b5b5090506200103791906200105d565b5090565b6040516106f080620018d483390190565b6040516113c08062001fc483390190565b6200108291905b808211156200107e57600081600090555060010162001064565b5090565b90565b6000620010938235620017f9565b905092915050565b600082601f8301121515620010af57600080fd5b8151620010c6620010c08262001723565b620016f5565b91508181835260208401935060208101905083856020840282011115620010ec57600080fd5b60005b838110156200112057816200110588826200112a565b845260208401935060208301925050600181019050620010ef565b5050505092915050565b600062001138825162001819565b905092915050565b60006200114e82356200182d565b905092915050565b600082601f83011215156200116a57600080fd5b8135620011816200117b826200174c565b620016f5565b915080825260208301602083018583830111156200119e57600080fd5b620011ab8382846200187d565b50505092915050565b600082601f8301121515620011c857600080fd5b8151620011df620011d9826200174c565b620016f5565b91508082526020830160208301858383011115620011fc57600080fd5b620012098382846200188c565b50505092915050565b6000602082840312156200122557600080fd5b6000620012358482850162001085565b91505092915050565b6000602082840312156200125157600080fd5b600082015167ffffffffffffffff8111156200126c57600080fd5b6200127a848285016200109b565b91505092915050565b6000602082840312156200129657600080fd5b6000620012a68482850162001140565b91505092915050565b600060208284031215620012c257600080fd5b600082013567ffffffffffffffff811115620012dd57600080fd5b620012eb8482850162001156565b91505092915050565b6000602082840312156200130757600080fd5b600082015167ffffffffffffffff8111156200132257600080fd5b6200133084828501620011b4565b91505092915050565b600080604083850312156200134d57600080fd5b600083013567ffffffffffffffff8111156200136857600080fd5b620013768582860162001156565b925050602083013567ffffffffffffffff8111156200139457600080fd5b620013a28582860162001156565b9150509250929050565b620013b781620017d9565b82525050565b6000620013ca8262001793565b808452602084019350620013de8362001779565b60005b828110156200141657620013f78683516200149a565b6200140282620017bf565b9150602086019550600181019050620013e1565b50849250505092915050565b60006200142f826200179e565b808452602084019350836020820285016200144a8562001786565b60005b84811015620014895783830388526200146883835162001509565b92506200147582620017cc565b91506020880197506001810190506200144d565b508196508694505050505092915050565b620014a58162001841565b82525050565b620014b68162001855565b82525050565b620014c78162001869565b82525050565b6000620014da82620017b4565b808452620014f08160208601602086016200188c565b620014fb81620018c2565b602085010191505092915050565b60006200151682620017a9565b8084526200152c8160208601602086016200188c565b6200153781620018c2565b602085010191505092915050565b60006020820190506200155c6000830184620013ac565b92915050565b6000604082019050620015796000830185620013ac565b620015886020830184620014ab565b9392505050565b6000604082019050620015a66000830185620013ac565b620015b56020830184620014bc565b9392505050565b60006020820190508181036000830152620015d88184620013bd565b905092915050565b60006020820190508181036000830152620015fc818462001422565b905092915050565b60006020820190506200161b6000830184620014ab565b92915050565b6000602082019050620016386000830184620014bc565b92915050565b600060208201905081810360008301526200165a818462001509565b905092915050565b600060208201905081810360008301526200167e8184620014cd565b905092915050565b60006040820190508181036000830152620016a28185620014cd565b9050620016b36020830184620013ac565b9392505050565b60006040820190508181036000830152620016d68185620014cd565b90508181036020830152620016ec8184620014cd565b90509392505050565b6000604051905081810181811067ffffffffffffffff821117156200171957600080fd5b8060405250919050565b600067ffffffffffffffff8211156200173b57600080fd5b602082029050602081019050919050565b600067ffffffffffffffff8211156200176457600080fd5b601f19601f8301169050602081019050919050565b6000602082019050919050565b6000602082019050919050565b600081519050919050565b600081519050919050565b600081519050919050565b600081519050919050565b6000602082019050919050565b6000602082019050919050565b600073ffffffffffffffffffffffffffffffffffffffff82169050919050565b600073ffffffffffffffffffffffffffffffffffffffff82169050919050565b60006200182682620017d9565b9050919050565b60006200183a82620017d9565b9050919050565b60006200184e82620017d9565b9050919050565b60006200186282620017d9565b9050919050565b60006200187682620017d9565b9050919050565b82818337600083830152505050565b60005b83811015620018ac5780820151818401526020810190506200188f565b83811115620018bc576000848401525b50505050565b6000601f19601f83011690509190505600608060405234801561001057600080fd5b506040516106f03803806106f083398101806040526100329190810190610162565b8160009080519060200190610048929190610067565b50806001908051906020019061005f929190610067565b50505061025a565b828054600181600116156101000203166002900490600052602060002090601f016020900481019282601f106100a857805160ff19168380011785556100d6565b828001600101855582156100d6579182015b828111156100d55782518255916020019190600101906100ba565b5b5090506100e391906100e7565b5090565b61010991905b808211156101055760008160009055506001016100ed565b5090565b90565b600082601f830112151561011f57600080fd5b815161013261012d826101fb565b6101ce565b9150808252602083016020830185838301111561014e57600080fd5b610159838284610227565b50505092915050565b6000806040838503121561017557600080fd5b600083015167ffffffffffffffff81111561018f57600080fd5b61019b8582860161010c565b925050602083015167ffffffffffffffff8111156101b857600080fd5b6101c48582860161010c565b9150509250929050565b6000604051905081810181811067ffffffffffffffff821117156101f157600080fd5b8060405250919050565b600067ffffffffffffffff82111561021257600080fd5b601f19601f8301169050602081019050919050565b60005b8381101561024557808201518184015260208101905061022a565b83811115610254576000848401525b50505050565b610487806102696000396000f300608060405260043610610057576000357c0100000000000000000000000000000000000000000000000000000000900463ffffffff1680631327b8871461005c57806317d7de7c14610085578063487e2db6146100b0575b600080fd5b34801561006857600080fd5b50610083600480360361007e9190810190610288565b6100db565b005b34801561009157600080fd5b5061009a610144565b6040516100a79190610373565b60405180910390f35b3480156100bc57600080fd5b506100c56101e6565b6040516100d29190610351565b60405180910390f35b60028190806001815401808255809150509060018203906000526020600020016000909192909190916101000a81548173ffffffffffffffffffffffffffffffffffffffff021916908373ffffffffffffffffffffffffffffffffffffffff1602179055505050565b606060008054600181600116156101000203166002900480601f0160208091040260200160405190810160405280929190818152602001828054600181600116156101000203166002900480156101dc5780601f106101b1576101008083540402835291602001916101dc565b820191906000526020600020905b8154815290600101906020018083116101bf57829003601f168201915b5050505050905090565b6060600280548060200260200160405190810160405280929190818152602001828054801561026a57602002820191906000526020600020905b8160009054906101000a900473ffffffffffffffffffffffffffffffffffffffff1673ffffffffffffffffffffffffffffffffffffffff1681526020019060010190808311610220575b5050505050905090565b600061028082356103e5565b905092915050565b60006020828403121561029a57600080fd5b60006102a884828501610274565b91505092915050565b60006102bc826103a2565b8084526020840193506102ce83610395565b60005b82811015610300576102e486835161030c565b6102ed826103b8565b91506020860195506001810190506102d1565b50849250505092915050565b610315816103f7565b82525050565b6000610326826103ad565b80845261033a816020860160208601610409565b6103438161043c565b602085010191505092915050565b6000602082019050818103600083015261036b81846102b1565b905092915050565b6000602082019050818103600083015261038d818461031b565b905092915050565b6000602082019050919050565b600081519050919050565b600081519050919050565b6000602082019050919050565b600073ffffffffffffffffffffffffffffffffffffffff82169050919050565b60006103f0826103c5565b9050919050565b6000610402826103c5565b9050919050565b60005b8381101561042757808201518184015260208101905061040c565b83811115610436576000848401525b50505050565b6000601f19601f83011690509190505600a265627a7a72305820744500604150cefc6fd657c127c0a40b5521488adb5063ecc2bc5f24e3f079886c6578706572696d656e74616cf5003760806040523480156200001157600080fd5b50604051620013c0380380620013c08339810180604052620000379190810190620001bc565b81600090805190602001906200004f92919062000099565b5080600160006101000a81548173ffffffffffffffffffffffffffffffffffffffff021916908373ffffffffffffffffffffffffffffffffffffffff1602179055505050620002c7565b828054600181600116156101000203166002900490600052602060002090601f016020900481019282601f10620000dc57805160ff19168380011785556200010d565b828001600101855582156200010d579182015b828111156200010c578251825591602001919060010190620000ef565b5b5090506200011c919062000120565b5090565b6200014591905b808211156200014157600081600090555060010162000127565b5090565b90565b600062000156825162000271565b905092915050565b600082601f83011215156200017257600080fd5b815162000189620001838262000244565b62000216565b91508082526020830160208301858383011115620001a657600080fd5b620001b383828462000291565b50505092915050565b60008060408385031215620001d057600080fd5b600083015167ffffffffffffffff811115620001eb57600080fd5b620001f9858286016200015e565b92505060206200020c8582860162000148565b9150509250929050565b6000604051905081810181811067ffffffffffffffff821117156200023a57600080fd5b8060405250919050565b600067ffffffffffffffff8211156200025c57600080fd5b601f19601f8301169050602081019050919050565b600073ffffffffffffffffffffffffffffffffffffffff82169050919050565b60005b83811015620002b157808201518184015260208101905062000294565b83811115620002c1576000848401525b50505050565b6110e980620002d76000396000f3006080604052600436106200008b576000357c0100000000000000000000000000000000000000000000000000000000900463ffffffff1680630dfeba7a14620000905780631a6192a614620000be57806359b0190f14620000ee578063b29ac49e1462000132578063ccd96c771462000176578063dd5b05db14620001a6578063f682cec714620001d6575b600080fd5b3480156200009d57600080fd5b50620000bc6004803603620000b69190810190620006ae565b62000204565b005b348015620000cb57600080fd5b50620000d66200031e565b604051620000e59190620008d1565b60405180910390f35b348015620000fb57600080fd5b506200011a600480360362000114919081019062000682565b62000361565b604051620001299190620008b4565b60405180910390f35b3480156200013f57600080fd5b506200015e600480360362000158919081019062000762565b62000409565b6040516200016d9190620008d1565b60405180910390f35b3480156200018357600080fd5b506200018e6200044d565b6040516200019d919062000890565b60405180910390f35b348015620001b357600080fd5b50620001be620004dd565b604051620001cd919062000873565b60405180910390f35b348015620001e357600080fd5b50620002026004803603620001fc9190810190620006ef565b62000507565b005b8173ffffffffffffffffffffffffffffffffffffffff16631327b887826040518263ffffffff167c01000000000000000000000000000000000000000000000000000000000281526004016200025b9190620008d1565b600060405180830381600087803b1580156200027657600080fd5b505af11580156200028b573d6000803e3d6000fd5b505050508073ffffffffffffffffffffffffffffffffffffffff16639e14a95f836040518263ffffffff167c0100000000000000000000000000000000000000000000000000000000028152600401620002e69190620008ee565b600060405180830381600087803b1580156200030157600080fd5b505af115801562000316573d6000803e3d6000fd5b505050505050565b6000600260008154811015156200033157fe5b9060005260206000200160009054906101000a900473ffffffffffffffffffffffffffffffffffffffff16905090565b600080600090505b600280549050811015620003fe578273ffffffffffffffffffffffffffffffffffffffff166002828154811015156200039e57fe5b9060005260206000200160009054906101000a900473ffffffffffffffffffffffffffffffffffffffff1673ffffffffffffffffffffffffffffffffffffffff161415620003f0576001915062000403565b808060010191505062000369565b600091505b50919050565b60006002828154811015156200041b57fe5b9060005260206000200160009054906101000a900473ffffffffffffffffffffffffffffffffffffffff169050919050565b60606002805480602002602001604051908101604052809291908181526020018280548015620004d357602002820191906000526020600020905b8160009054906101000a900473ffffffffffffffffffffffffffffffffffffffff1673ffffffffffffffffffffffffffffffffffffffff168152602001906001019080831162000488575b5050505050905090565b6000600160009054906101000a900473ffffffffffffffffffffffffffffffffffffffff16905090565b60008282600160009054906101000a900473ffffffffffffffffffffffffffffffffffffffff1662000538620005d1565b62000546939291906200090b565b604051809103906000f08015801562000563573d6000803e3d6000fd5b50905060028190806001815401808255809150509060018203906000526020600020016000909192909190916101000a81548173ffffffffffffffffffffffffffffffffffffffff021916908373ffffffffffffffffffffffffffffffffffffffff16021790555050505050565b6040516105f28062000abe83390190565b6000620005f0823562000a0d565b905092915050565b600062000606823562000a21565b905092915050565b600082601f83011215156200062257600080fd5b813562000639620006338262000984565b62000956565b915080825260208301602083018583830111156200065657600080fd5b6200066383828462000a67565b50505092915050565b60006200067a823562000a35565b905092915050565b6000602082840312156200069557600080fd5b6000620006a584828501620005e2565b91505092915050565b60008060408385031215620006c257600080fd5b6000620006d285828601620005f8565b9250506020620006e585828601620005e2565b9150509250929050565b600080604083850312156200070357600080fd5b600083013567ffffffffffffffff8111156200071e57600080fd5b6200072c858286016200060e565b925050602083013567ffffffffffffffff8111156200074a57600080fd5b62000758858286016200060e565b9150509250929050565b6000602082840312156200077557600080fd5b600062000785848285016200066c565b91505092915050565b6200079981620009e1565b82525050565b6000620007ac82620009be565b808452602084019350620007c083620009b1565b60005b82811015620007f857620007d986835162000815565b620007e482620009d4565b9150602086019550600181019050620007c3565b50849250505092915050565b6200080f8162000a01565b82525050565b620008208162000a3f565b82525050565b620008318162000a53565b82525050565b60006200084482620009c9565b8084526200085a81602086016020860162000a76565b620008658162000aac565b602085010191505092915050565b60006020820190506200088a60008301846200078e565b92915050565b60006020820190508181036000830152620008ac81846200079f565b905092915050565b6000602082019050620008cb600083018462000804565b92915050565b6000602082019050620008e8600083018462000815565b92915050565b600060208201905062000905600083018462000826565b92915050565b6000606082019050818103600083015262000927818662000837565b905081810360208301526200093d818562000837565b90506200094e60408301846200078e565b949350505050565b6000604051905081810181811067ffffffffffffffff821117156200097a57600080fd5b8060405250919050565b600067ffffffffffffffff8211156200099c57600080fd5b601f19601f8301169050602081019050919050565b6000602082019050919050565b600081519050919050565b600081519050919050565b6000602082019050919050565b600073ffffffffffffffffffffffffffffffffffffffff82169050919050565b60008115159050919050565b600062000a1a82620009e1565b9050919050565b600062000a2e82620009e1565b9050919050565b6000819050919050565b600062000a4c82620009e1565b9050919050565b600062000a6082620009e1565b9050919050565b82818337600083830152505050565b60005b8381101562000a9657808201518184015260208101905062000a79565b8381111562000aa6576000848401525b50505050565b6000601f19601f83011690509190505600608060405234801561001057600080fd5b506040516105f23803806105f2833981018060405261003291908101906101b8565b82600090805190602001906100489291906100a9565b50816001908051906020019061005f9291906100a9565b5080600260006101000a81548173ffffffffffffffffffffffffffffffffffffffff021916908373ffffffffffffffffffffffffffffffffffffffff1602179055505050506102e3565b828054600181600116156101000203166002900490600052602060002090601f016020900481019282601f106100ea57805160ff1916838001178555610118565b82800160010185558215610118579182015b828111156101175782518255916020019190600101906100fc565b5b5090506101259190610129565b5090565b61014b91905b8082111561014757600081600090555060010161012f565b5090565b90565b600061015a8251610290565b905092915050565b600082601f830112151561017557600080fd5b815161018861018382610264565b610237565b915080825260208301602083018583830111156101a457600080fd5b6101af8382846102b0565b50505092915050565b6000806000606084860312156101cd57600080fd5b600084015167ffffffffffffffff8111156101e757600080fd5b6101f386828701610162565b935050602084015167ffffffffffffffff81111561021057600080fd5b61021c86828701610162565b925050604061022d8682870161014e565b9150509250925092565b6000604051905081810181811067ffffffffffffffff8211171561025a57600080fd5b8060405250919050565b600067ffffffffffffffff82111561027b57600080fd5b601f19601f8301169050602081019050919050565b600073ffffffffffffffffffffffffffffffffffffffff82169050919050565b60005b838110156102ce5780820151818401526020810190506102b3565b838111156102dd576000848401525b50505050565b610300806102f26000396000f30060806040526004361061004c576000357c0100000000000000000000000000000000000000000000000000000000900463ffffffff16806317d7de7c146100515780639e14a95f1461007c575b600080fd5b34801561005d57600080fd5b506100666100a5565b6040516100739190610223565b60405180910390f35b34801561008857600080fd5b506100a3600480360361009e91908101906101c4565b610147565b005b606060008054600181600116156101000203166002900480601f01602080910402602001604051908101604052809291908181526020018280546001816001161561010002031660029004801561013d5780601f106101125761010080835404028352916020019161013d565b820191906000526020600020905b81548152906001019060200180831161012057829003601f168201915b5050505050905090565b60038190806001815401808255809150509060018203906000526020600020016000909192909190916101000a81548173ffffffffffffffffffffffffffffffffffffffff021916908373ffffffffffffffffffffffffffffffffffffffff1602179055505050565b60006101bc8235610270565b905092915050565b6000602082840312156101d657600080fd5b60006101e4848285016101b0565b91505092915050565b60006101f882610245565b80845261020c816020860160208601610282565b610215816102b5565b602085010191505092915050565b6000602082019050818103600083015261023d81846101ed565b905092915050565b600081519050919050565b600073ffffffffffffffffffffffffffffffffffffffff82169050919050565b600061027b82610250565b9050919050565b60005b838110156102a0578082015181840152602081019050610285565b838111156102af576000848401525b50505050565b6000601f19601f83011690509190505600a265627a7a7230582016badbe40034b6ccc5be3c5c9b894c25b7157b0c17659b23f222712f35044f4f6c6578706572696d656e74616cf50037a265627a7a7230582044eaac7cb31237fe899bfbbdad65be191b7e2902e0a0a6e8bf42f45fce26341f6c6578706572696d656e74616cf50037a265627a7a72305820bcb3495e7ac7dd2cb043567e9ece4c7deff3ed2656a85ebda4f941bc3cd40f5c6c6578706572696d656e74616cf50037",
  "source": "pragma solidity ^0.4.2;\npragma experimental ABIEncoderV2;\n\ncontract Certify\n{\n\tevent OrgCreated(address _from, Org addr);\n\tevent UserCreated(address _from, User addr);\n\n\tmapping(address => User) public allUsers;\n\tmapping(address => Org) public allOrgs;\n\n\tstring public testWord;\n\n\t// Constructor\n\tfunction Certify() public \n\t{\n        testWord = \"Blockchain at UCI\";\n    }\n\n    // For testing purposes\n    function setTestWord() public returns (string)\n    {\n    \ttestWord = \"HI\";\n    }\n    \n    // For testing purposes\n    function viewTestWord() public view returns (string)\n    {\n        return testWord;\n    }\n    \n    // get name of user based on address\n    function viewUsersName(address identifier) public view returns (string)\n    {\n        return allUsers[identifier].getName();\n    }\n    \n    // view the addresses of the certificates the user ownes\n    // <param name=identifier> The address of the User creator. (Uses AllUsers mapping to get User object) <param/>\n    function viewUsersCertificates(address identifier) public view returns (Certification[])\n    {\n        return allUsers[identifier].getCertifications();\n    }\n    \n    // function viewUsersCertificateNames(address identifier) public view returns (string[])\n    // {\n    //     string[] names;\n    //     for(uint i = 0; i < allUsers[identifier].getCertifications().length; i++)\n\t   //  {\n\t   //      names.push(allUsers[identifier].getCertifications()[i].getName());\n\t   //  }\n\t   //  return names;\n    // }\n\n    // view the names of the certificates the user owns\n    // <param name=user> The address of the User object <param/>\n    function viewUsersCertificateNames(User user) public view returns (string[])\n    {\n        string[] names;\n        for(uint i = 0; i < user.getCertifications().length; i++)\n\t    {\n\t        names.push(user.getCertifications()[i].getName());\n\t    }\n\t    return names;\n    }\n\n\t// identifier is either a address or a username\n\t// We'll only use address for now but later add if statement to differentiate\n\tfunction searchForUser(address identifier) returns (User)\n\t{\n\t\treturn allUsers[identifier];\n\t}\n\n\t// When user creates an account\n\t// Only function that Users call\n\t// Creates an event so that we get the address\n\tfunction createNewUser(string _name, string _username) returns (address)\n\t{\n\t\tUser user = new User(_name, _username);\n\t\tallUsers[msg.sender] = user;\n\t\tUserCreated(msg.sender, user);\n\t}\n\n\t// When an organization creates a new organization\n\t// Creates an event so that we get the address\n\tfunction createNewOrg(string _name) returns (Org)\n\t{\n\t\tOrg org = new Org(_name, msg.sender);\n\t\tallOrgs[msg.sender] = org;\n\t\tOrgCreated(msg.sender, org);\n\t}\n\n\t// get the actual User object from an address\n\tfunction getUser(address user_address) returns (User)\n\t{\n\t\treturn allUsers[user_address];\n\t}\n\n\t// get the actual Org object from an address\n\tfunction getOrg(address org_address) public view returns (Org)\n\t{\n\t\treturn allOrgs[org_address];\n\t}\n\n\t// get the Org that belongs to the msg.sender address\n\tfunction getCurrentOrg() public view returns (Org)\n\t{\n\t\treturn getOrg(msg.sender);\n\t}\n\t\n\tfunction getUserFromAddress(address identifier) public view returns (User)\n\t{\n\t    return allUsers[identifier];\n\t}\n\n}\n\ncontract User \n{\n\tstring name;\n\tstring username;\n\tCertification[] certificationsRecieved;\n\t\n\tfunction getName() public view returns (string)\n\t{\n\t    return name;\n\t}\n\n\tfunction User(string _name, string _username) public\n\t{\n\t\tname = _name;\n\t\tusername = _username;\n\t}\n\n\t// return the certification addresses that User holds\n\tfunction getCertifications() returns (Certification[])\n\t{\n\t\treturn certificationsRecieved;\n\t}\n\n\t// add a certification to list of certifications recieved\n\tfunction addToCertificationsRecieved(Certification certificate) \n\t{\n\t\tcertificationsRecieved.push(certificate);\n\t}\n\n}\n\ncontract Org\n{\n\tstring name;\n\t\n\t// address of the creator of the org\n\taddress addressBelongsTo;\n\tCertification[] certificationsOwned;\n\n\tfunction Org(string _name, address _addressBelongsTo) public\n\t{\n\t\tname = _name;\n\t\taddressBelongsTo = _addressBelongsTo;\n\t}\n\n\t// Get the address of the creator of the org.\n\tfunction getAddressBelongsTo() returns (address)\n\t{\n\t\treturn addressBelongsTo;\n\t}\n\n\t// \n\tfunction createNewCertificate(string _name, string _description)\n\t{\n\t   // require(msg.sender == addressBelongsTo);\n\t\tCertification certificate = new Certification(_name, _description, addressBelongsTo);\n\t\tcertificationsOwned.push(certificate);\n\t}\n\n\tfunction linkUserWithCertificate(User user, Certification certificate)\n\t{\n\t   // require(msg.sender == addressBelongsTo);\n\t    // need to require that the certification is in the org's certificationsOwned\n\t    //require(ownsCertification(certificate));\n\t\tuser.addToCertificationsRecieved(certificate);\n\t\tcertificate.addToRecievers(user);\n\t}\n\t\n\t// determine if certification is inside certificationsOwned\n\tfunction ownsCertification(Certification certificate) returns (bool)\n\t{\n\t    for (uint i = 0; i < certificationsOwned.length; i++)\n\t    {\n\t        if (certificationsOwned[i] == certificate)\n\t        {\n\t            return true;\n\t        }\n\t    }\n\t    return false;\n\t}\n\t\n\t// View the first certificate the org ownes\n\tfunction viewFirstCertificate() public view returns (Certification)\n\t{\n\t    return certificationsOwned[0];\n\t}\n\t\n\t// returns list of all certificates org ownes\n\tfunction viewAllCertificates() public view returns (Certification[])\n\t{\n\t    return certificationsOwned;\n\t}\n\n\tfunction viewSpecificCertificate(uint index) public view returns (Certification)\n\t{\n\t\treturn certificationsOwned[index];\n\t}\n\n}\n\ncontract Certification\n{\n\tstring name;\n\tstring description;\n\taddress addressOrgBelongsTo;\n\tUser[] recievers;\n\n\tfunction Certification(string _name, string _description, address _addressOrgBelongsTo) public\n\t{\n\t\tname = _name;\n\t\tdescription = _description;\n\t\taddressOrgBelongsTo = _addressOrgBelongsTo;\n\t}\n\n\t// add user to list of people who have recieved certificate\n\tfunction addToRecievers(User user)\n\t{\n\t\t//require(msg.sender == addressOrgBelongsTo);\n\t\trecievers.push(user);\n\t}\n\t\n\tfunction getName() public view returns (string)\n\t{\n\t    return name;\n\t}\n}\n\n",
  "sourcePath": "/Users/andrei/degreeProof/contracts/Certify.sol",
  "compiler": {
    "name": "solc",
    "version": "0.4.24+commit.e67f0147.Emscripten.clang"
  },
  "schemaVersion": "2.0.1",
  "updatedAt": "2018-10-21T18:34:25.876Z"
}