{
  "contractName": "Certification",
  "abi": [
    {
      "inputs": [
        {
          "name": "_name",
          "type": "string"
        },
        {
          "name": "_description",
          "type": "string"
        },
        {
          "name": "_addressOrgBelongsTo",
          "type": "address"
        }
      ],
      "payable": false,
      "stateMutability": "nonpayable",
      "type": "constructor"
    },
    {
      "constant": false,
      "inputs": [
        {
          "name": "user",
          "type": "address"
        }
      ],
      "name": "addToRecievers",
      "outputs": [],
      "payable": false,
      "stateMutability": "nonpayable",
      "type": "function"
    },
    {
      "constant": true,
      "inputs": [],
      "name": "getName",
      "outputs": [
        {
          "name": "",
          "type": "string"
        }
      ],
      "payable": false,
      "stateMutability": "view",
      "type": "function"
    }
  ],
  "bytecode": "0x608060405234801561001057600080fd5b506040516105f23803806105f2833981018060405261003291908101906101b8565b82600090805190602001906100489291906100a9565b50816001908051906020019061005f9291906100a9565b5080600260006101000a81548173ffffffffffffffffffffffffffffffffffffffff021916908373ffffffffffffffffffffffffffffffffffffffff1602179055505050506102e3565b828054600181600116156101000203166002900490600052602060002090601f016020900481019282601f106100ea57805160ff1916838001178555610118565b82800160010185558215610118579182015b828111156101175782518255916020019190600101906100fc565b5b5090506101259190610129565b5090565b61014b91905b8082111561014757600081600090555060010161012f565b5090565b90565b600061015a8251610290565b905092915050565b600082601f830112151561017557600080fd5b815161018861018382610264565b610237565b915080825260208301602083018583830111156101a457600080fd5b6101af8382846102b0565b50505092915050565b6000806000606084860312156101cd57600080fd5b600084015167ffffffffffffffff8111156101e757600080fd5b6101f386828701610162565b935050602084015167ffffffffffffffff81111561021057600080fd5b61021c86828701610162565b925050604061022d8682870161014e565b9150509250925092565b6000604051905081810181811067ffffffffffffffff8211171561025a57600080fd5b8060405250919050565b600067ffffffffffffffff82111561027b57600080fd5b601f19601f8301169050602081019050919050565b600073ffffffffffffffffffffffffffffffffffffffff82169050919050565b60005b838110156102ce5780820151818401526020810190506102b3565b838111156102dd576000848401525b50505050565b610300806102f26000396000f30060806040526004361061004c576000357c0100000000000000000000000000000000000000000000000000000000900463ffffffff16806317d7de7c146100515780639e14a95f1461007c575b600080fd5b34801561005d57600080fd5b506100666100a5565b6040516100739190610223565b60405180910390f35b34801561008857600080fd5b506100a3600480360361009e91908101906101c4565b610147565b005b606060008054600181600116156101000203166002900480601f01602080910402602001604051908101604052809291908181526020018280546001816001161561010002031660029004801561013d5780601f106101125761010080835404028352916020019161013d565b820191906000526020600020905b81548152906001019060200180831161012057829003601f168201915b5050505050905090565b60038190806001815401808255809150509060018203906000526020600020016000909192909190916101000a81548173ffffffffffffffffffffffffffffffffffffffff021916908373ffffffffffffffffffffffffffffffffffffffff1602179055505050565b60006101bc8235610270565b905092915050565b6000602082840312156101d657600080fd5b60006101e4848285016101b0565b91505092915050565b60006101f882610245565b80845261020c816020860160208601610282565b610215816102b5565b602085010191505092915050565b6000602082019050818103600083015261023d81846101ed565b905092915050565b600081519050919050565b600073ffffffffffffffffffffffffffffffffffffffff82169050919050565b600061027b82610250565b9050919050565b60005b838110156102a0578082015181840152602081019050610285565b838111156102af576000848401525b50505050565b6000601f19601f83011690509190505600a265627a7a7230582016badbe40034b6ccc5be3c5c9b894c25b7157b0c17659b23f222712f35044f4f6c6578706572696d656e74616cf50037",
  "source": "pragma solidity ^0.4.2;\npragma experimental ABIEncoderV2;\n\ncontract Certify\n{\n\tevent OrgCreated(address _from, Org addr);\n\tevent UserCreated(address _from, User addr);\n\n\tmapping(address => User) public allUsers;\n\tmapping(address => Org) public allOrgs;\n\n\tstring public testWord;\n\n\t// Constructor\n\tfunction Certify() public \n\t{\n        testWord = \"Blockchain at UCI\";\n    }\n\n    // For testing purposes\n    function setTestWord() public returns (string)\n    {\n    \ttestWord = \"HI\";\n    }\n    \n    // For testing purposes\n    function viewTestWord() public view returns (string)\n    {\n        return testWord;\n    }\n    \n    // get name of user based on address\n    function viewUsersName(address identifier) public view returns (string)\n    {\n        return allUsers[identifier].getName();\n    }\n    \n    // view the addresses of the certificates the user ownes\n    // <param name=identifier> The address of the User creator. (Uses AllUsers mapping to get User object) <param/>\n    function viewUsersCertificates(address identifier) public view returns (Certification[])\n    {\n        return allUsers[identifier].getCertifications();\n    }\n    \n    // function viewUsersCertificateNames(address identifier) public view returns (string[])\n    // {\n    //     string[] names;\n    //     for(uint i = 0; i < allUsers[identifier].getCertifications().length; i++)\n\t   //  {\n\t   //      names.push(allUsers[identifier].getCertifications()[i].getName());\n\t   //  }\n\t   //  return names;\n    // }\n\n    // view the names of the certificates the user owns\n    // <param name=user> The address of the User object <param/>\n    function viewUsersCertificateNames(User user) public view returns (string[])\n    {\n        string[] names;\n        for(uint i = 0; i < user.getCertifications().length; i++)\n\t    {\n\t        names.push(user.getCertifications()[i].getName());\n\t    }\n\t    return names;\n    }\n\n\t// identifier is either a address or a username\n\t// We'll only use address for now but later add if statement to differentiate\n\tfunction searchForUser(address identifier) returns (User)\n\t{\n\t\treturn allUsers[identifier];\n\t}\n\n\t// When user creates an account\n\t// Only function that Users call\n\t// Creates an event so that we get the address\n\tfunction createNewUser(string _name, string _username) returns (address)\n\t{\n\t\tUser user = new User(_name, _username);\n\t\tallUsers[msg.sender] = user;\n\t\tUserCreated(msg.sender, user);\n\t}\n\n\t// When an organization creates a new organization\n\t// Creates an event so that we get the address\n\tfunction createNewOrg(string _name) returns (Org)\n\t{\n\t\tOrg org = new Org(_name, msg.sender);\n\t\tallOrgs[msg.sender] = org;\n\t\tOrgCreated(msg.sender, org);\n\t}\n\n\t// get the actual User object from an address\n\tfunction getUser(address user_address) returns (User)\n\t{\n\t\treturn allUsers[user_address];\n\t}\n\n\t// get the actual Org object from an address\n\tfunction getOrg(address org_address) public view returns (Org)\n\t{\n\t\treturn allOrgs[org_address];\n\t}\n\n\t// get the Org that belongs to the msg.sender address\n\tfunction getCurrentOrg() public view returns (Org)\n\t{\n\t\treturn getOrg(msg.sender);\n\t}\n\t\n\tfunction getUserFromAddress(address identifier) public view returns (User)\n\t{\n\t    return allUsers[identifier];\n\t}\n\n}\n\ncontract User \n{\n\tstring name;\n\tstring username;\n\tCertification[] certificationsRecieved;\n\t\n\tfunction getName() public view returns (string)\n\t{\n\t    return name;\n\t}\n\n\tfunction User(string _name, string _username) public\n\t{\n\t\tname = _name;\n\t\tusername = _username;\n\t}\n\n\t// return the certification addresses that User holds\n\tfunction getCertifications() returns (Certification[])\n\t{\n\t\treturn certificationsRecieved;\n\t}\n\n\t// add a certification to list of certifications recieved\n\tfunction addToCertificationsRecieved(Certification certificate) \n\t{\n\t\tcertificationsRecieved.push(certificate);\n\t}\n\n}\n\ncontract Org\n{\n\tstring name;\n\t\n\t// address of the creator of the org\n\taddress addressBelongsTo;\n\tCertification[] certificationsOwned;\n\n\tfunction Org(string _name, address _addressBelongsTo) public\n\t{\n\t\tname = _name;\n\t\taddressBelongsTo = _addressBelongsTo;\n\t}\n\n\t// Get the address of the creator of the org.\n\tfunction getAddressBelongsTo() returns (address)\n\t{\n\t\treturn addressBelongsTo;\n\t}\n\n\t// \n\tfunction createNewCertificate(string _name, string _description)\n\t{\n\t   // require(msg.sender == addressBelongsTo);\n\t\tCertification certificate = new Certification(_name, _description, addressBelongsTo);\n\t\tcertificationsOwned.push(certificate);\n\t}\n\n\tfunction linkUserWithCertificate(User user, Certification certificate)\n\t{\n\t   // require(msg.sender == addressBelongsTo);\n\t    // need to require that the certification is in the org's certificationsOwned\n\t    //require(ownsCertification(certificate));\n\t\tuser.addToCertificationsRecieved(certificate);\n\t\tcertificate.addToRecievers(user);\n\t}\n\t\n\t// determine if certification is inside certificationsOwned\n\tfunction ownsCertification(Certification certificate) returns (bool)\n\t{\n\t    for (uint i = 0; i < certificationsOwned.length; i++)\n\t    {\n\t        if (certificationsOwned[i] == certificate)\n\t        {\n\t            return true;\n\t        }\n\t    }\n\t    return false;\n\t}\n\t\n\t// View the first certificate the org ownes\n\tfunction viewFirstCertificate() public view returns (Certification)\n\t{\n\t    return certificationsOwned[0];\n\t}\n\t\n\t// returns list of all certificates org ownes\n\tfunction viewAllCertificates() public view returns (Certification[])\n\t{\n\t    return certificationsOwned;\n\t}\n\n\tfunction viewSpecificCertificate(uint index) public view returns (Certification)\n\t{\n\t\treturn certificationsOwned[index];\n\t}\n\n}\n\ncontract Certification\n{\n\tstring name;\n\tstring description;\n\taddress addressOrgBelongsTo;\n\tUser[] recievers;\n\n\tfunction Certification(string _name, string _description, address _addressOrgBelongsTo) public\n\t{\n\t\tname = _name;\n\t\tdescription = _description;\n\t\taddressOrgBelongsTo = _addressOrgBelongsTo;\n\t}\n\n\t// add user to list of people who have recieved certificate\n\tfunction addToRecievers(User user)\n\t{\n\t\t//require(msg.sender == addressOrgBelongsTo);\n\t\trecievers.push(user);\n\t}\n\t\n\tfunction getName() public view returns (string)\n\t{\n\t    return name;\n\t}\n}\n\n",
  "sourcePath": "/Users/andrei/degreeProof/contracts/Certify.sol",
  "compiler": {
    "name": "solc",
    "version": "0.4.24+commit.e67f0147.Emscripten.clang"
  },
  "schemaVersion": "2.0.1",
  "updatedAt": "2018-10-21T18:34:25.232Z"
}