{
  "contractName": "Certify",
  "abi": [
    {
      "constant": true,
      "inputs": [],
      "name": "testWord",
      "outputs": [
        {
          "name": "",
          "type": "string"
        }
      ],
      "payable": false,
      "stateMutability": "view",
      "type": "function"
    },
    {
      "constant": true,
      "inputs": [
        {
          "name": "",
          "type": "address"
        }
      ],
      "name": "allOrgs",
      "outputs": [
        {
          "name": "",
          "type": "address"
        }
      ],
      "payable": false,
      "stateMutability": "view",
      "type": "function"
    },
    {
      "constant": true,
      "inputs": [
        {
          "name": "",
          "type": "address"
        }
      ],
      "name": "allUsers",
      "outputs": [
        {
          "name": "",
          "type": "address"
        }
      ],
      "payable": false,
      "stateMutability": "view",
      "type": "function"
    },
    {
      "inputs": [],
      "payable": false,
      "stateMutability": "nonpayable",
      "type": "constructor"
    },
    {
      "anonymous": false,
      "inputs": [
        {
          "indexed": false,
          "name": "value1",
          "type": "string"
        }
      ],
      "name": "print",
      "type": "event"
    },
    {
      "constant": false,
      "inputs": [],
      "name": "setTestWord",
      "outputs": [
        {
          "name": "",
          "type": "string"
        }
      ],
      "payable": false,
      "stateMutability": "nonpayable",
      "type": "function"
    },
    {
      "constant": true,
      "inputs": [],
      "name": "viewTestWord",
      "outputs": [
        {
          "name": "",
          "type": "string"
        }
      ],
      "payable": false,
      "stateMutability": "view",
      "type": "function"
    },
    {
      "constant": true,
      "inputs": [
        {
          "name": "identifier",
          "type": "address"
        }
      ],
      "name": "viewUsersName",
      "outputs": [
        {
          "name": "",
          "type": "string"
        }
      ],
      "payable": false,
      "stateMutability": "view",
      "type": "function"
    },
    {
      "constant": true,
      "inputs": [
        {
          "name": "identifier",
          "type": "address"
        }
      ],
      "name": "viewUsersCertificates",
      "outputs": [
        {
          "name": "",
          "type": "address[]"
        }
      ],
      "payable": false,
      "stateMutability": "view",
      "type": "function"
    },
    {
      "constant": true,
      "inputs": [
        {
          "name": "user",
          "type": "address"
        }
      ],
      "name": "viewUsersCertificateNames",
      "outputs": [
        {
          "name": "",
          "type": "string[]"
        }
      ],
      "payable": false,
      "stateMutability": "view",
      "type": "function"
    },
    {
      "constant": false,
      "inputs": [
        {
          "name": "identifier",
          "type": "address"
        }
      ],
      "name": "searchForUser",
      "outputs": [
        {
          "name": "",
          "type": "address"
        }
      ],
      "payable": false,
      "stateMutability": "nonpayable",
      "type": "function"
    },
    {
      "constant": false,
      "inputs": [
        {
          "name": "_name",
          "type": "string"
        },
        {
          "name": "_username",
          "type": "string"
        }
      ],
      "name": "createNewUser",
      "outputs": [
        {
          "name": "",
          "type": "address"
        }
      ],
      "payable": false,
      "stateMutability": "nonpayable",
      "type": "function"
    },
    {
      "constant": false,
      "inputs": [
        {
          "name": "_name",
          "type": "string"
        }
      ],
      "name": "createNewOrg",
      "outputs": [],
      "payable": false,
      "stateMutability": "nonpayable",
      "type": "function"
    },
    {
      "constant": false,
      "inputs": [
        {
          "name": "user_address",
          "type": "address"
        }
      ],
      "name": "getUser",
      "outputs": [
        {
          "name": "",
          "type": "address"
        }
      ],
      "payable": false,
      "stateMutability": "nonpayable",
      "type": "function"
    },
    {
      "constant": true,
      "inputs": [
        {
          "name": "org_address",
          "type": "address"
        }
      ],
      "name": "getOrg",
      "outputs": [
        {
          "name": "",
          "type": "address"
        }
      ],
      "payable": false,
      "stateMutability": "view",
      "type": "function"
    },
    {
      "constant": true,
      "inputs": [],
      "name": "getCurrentOrg",
      "outputs": [
        {
          "name": "",
          "type": "address"
        }
      ],
      "payable": false,
      "stateMutability": "view",
      "type": "function"
    },
    {
      "constant": true,
      "inputs": [
        {
          "name": "identifier",
          "type": "address"
        }
      ],
      "name": "getUserFromAddress",
      "outputs": [
        {
          "name": "",
          "type": "address"
        }
      ],
      "payable": false,
      "stateMutability": "view",
      "type": "function"
    }
  ],
  "bytecode": "0x60806040523480156200001157600080fd5b506040805190810160405280601181526020017f426c6f636b636861696e20617420554349000000000000000000000000000000815250600290805190602001906200005f92919062000066565b5062000115565b828054600181600116156101000203166002900490600052602060002090601f016020900481019282601f10620000a957805160ff1916838001178555620000da565b82800160010185558215620000da579182015b82811115620000d9578251825591602001919060010190620000bc565b5b509050620000e99190620000ed565b5090565b6200011291905b808211156200010e576000816000905550600101620000f4565b5090565b90565b6132bc80620001256000396000f300608060405260043610620000eb576000357c0100000000000000000000000000000000000000000000000000000000900463ffffffff1680631f1f865214620000f0578063234de28114620001345780633ef039841462000178578063408b81ca14620001a85780634dfa3f1814620001d85780635b589c96146200021c57806365fe081614620002605780636c142fd4146200028e5780636f77926b14620002be5780637200b23d1462000302578063919632a41462000346578063c677f827146200038a578063e14f50d414620003ce578063edbece371462000412578063ef76fb591462000456575b600080fd5b348015620000fd57600080fd5b506200011c600480360362000116919081019062001186565b62000486565b6040516200012b91906200151e565b60405180910390f35b3480156200014157600080fd5b506200016060048036036200015a919081019062001186565b620004ef565b6040516200016f9190620014d6565b60405180910390f35b3480156200018557600080fd5b5062000190620005fb565b6040516200019f91906200157c565b60405180910390f35b348015620001b557600080fd5b50620001c06200064e565b604051620001cf919062001558565b60405180910390f35b348015620001e557600080fd5b50620002046004803603620001fe9190810190620012ad565b620006f0565b604051620002139190620014b9565b60405180910390f35b3480156200022957600080fd5b5062000248600480360362000242919081019062001186565b620007b3565b6040516200025791906200153b565b60405180910390f35b3480156200026d57600080fd5b506200028c600480360362000286919081019062001223565b6200081b565b005b3480156200029b57600080fd5b50620002a6620008d8565b604051620002b591906200157c565b60405180910390f35b348015620002cb57600080fd5b50620002ea6004803603620002e4919081019062001186565b6200097e565b604051620002f991906200153b565b60405180910390f35b3480156200030f57600080fd5b506200032e6004803603620003289190810190620011f7565b620009e6565b6040516200033d9190620014fa565b60405180910390f35b3480156200035357600080fd5b506200037260048036036200036c919081019062001186565b62000d3c565b6040516200038191906200151e565b60405180910390f35b3480156200039757600080fd5b50620003b66004803603620003b0919081019062001186565b62000d6f565b604051620003c591906200157c565b60405180910390f35b348015620003db57600080fd5b50620003fa6004803603620003f4919081019062001186565b62000e7b565b6040516200040991906200153b565b60405180910390f35b3480156200041f57600080fd5b506200043e600480360362000438919081019062001186565b62000ee3565b6040516200044d91906200153b565b60405180910390f35b3480156200046357600080fd5b506200046e62000f16565b6040516200047d91906200151e565b60405180910390f35b6000600160008373ffffffffffffffffffffffffffffffffffffffff1673ffffffffffffffffffffffffffffffffffffffff16815260200190815260200160002060009054906101000a900473ffffffffffffffffffffffffffffffffffffffff169050919050565b60606000808373ffffffffffffffffffffffffffffffffffffffff1673ffffffffffffffffffffffffffffffffffffffff16815260200190815260200160002060009054906101000a900473ffffffffffffffffffffffffffffffffffffffff1673ffffffffffffffffffffffffffffffffffffffff1663487e2db66040518163ffffffff167c0100000000000000000000000000000000000000000000000000000000028152600401600060405180830381600087803b158015620005b457600080fd5b505af1158015620005c9573d6000803e3d6000fd5b505050506040513d6000823e3d601f19601f82011682018060405250620005f49190810190620011b2565b9050919050565b60606040805190810160405280600281526020017f4849000000000000000000000000000000000000000000000000000000000000815250600290805190602001906200064a92919062000f28565b5090565b60028054600181600116156101000203166002900480601f016020809104026020016040519081016040528092919081815260200182805460018160011615610100020316600290048015620006e85780601f10620006bc57610100808354040283529160200191620006e8565b820191906000526020600020905b815481529060010190602001808311620006ca57829003601f168201915b505050505081565b6000808383620006ff62000faf565b6200070c929190620015d4565b604051809103906000f08015801562000729573d6000803e3d6000fd5b509050806000803373ffffffffffffffffffffffffffffffffffffffff1673ffffffffffffffffffffffffffffffffffffffff16815260200190815260200160002060006101000a81548173ffffffffffffffffffffffffffffffffffffffff021916908373ffffffffffffffffffffffffffffffffffffffff1602179055503391505092915050565b60008060008373ffffffffffffffffffffffffffffffffffffffff1673ffffffffffffffffffffffffffffffffffffffff16815260200190815260200160002060009054906101000a900473ffffffffffffffffffffffffffffffffffffffff169050919050565b600081336200082962000fc0565b62000836929190620015a0565b604051809103906000f08015801562000853573d6000803e3d6000fd5b50905080600160003373ffffffffffffffffffffffffffffffffffffffff1673ffffffffffffffffffffffffffffffffffffffff16815260200190815260200160002060006101000a81548173ffffffffffffffffffffffffffffffffffffffff021916908373ffffffffffffffffffffffffffffffffffffffff1602179055505050565b606060028054600181600116156101000203166002900480601f016020809104026020016040519081016040528092919081815260200182805460018160011615610100020316600290048015620009745780601f10620009485761010080835404028352916020019162000974565b820191906000526020600020905b8154815290600101906020018083116200095657829003601f168201915b5050505050905090565b60008060008373ffffffffffffffffffffffffffffffffffffffff1673ffffffffffffffffffffffffffffffffffffffff16815260200190815260200160002060009054906101000a900473ffffffffffffffffffffffffffffffffffffffff169050919050565b6060600080600090505b8373ffffffffffffffffffffffffffffffffffffffff1663487e2db66040518163ffffffff167c0100000000000000000000000000000000000000000000000000000000028152600401600060405180830381600087803b15801562000a5557600080fd5b505af115801562000a6a573d6000803e3d6000fd5b505050506040513d6000823e3d601f19601f8201168201806040525062000a959190810190620011b2565b5181101562000c4c57818473ffffffffffffffffffffffffffffffffffffffff1663487e2db66040518163ffffffff167c0100000000000000000000000000000000000000000000000000000000028152600401600060405180830381600087803b15801562000b0457600080fd5b505af115801562000b19573d6000803e3d6000fd5b505050506040513d6000823e3d601f19601f8201168201806040525062000b449190810190620011b2565b8281518110151562000b5257fe5b9060200190602002015173ffffffffffffffffffffffffffffffffffffffff166317d7de7c6040518163ffffffff167c0100000000000000000000000000000000000000000000000000000000028152600401600060405180830381600087803b15801562000bc057600080fd5b505af115801562000bd5573d6000803e3d6000fd5b505050506040513d6000823e3d601f19601f8201168201806040525062000c00919081019062001268565b908060018154018082558091505090600182039060005260206000200160009091929091909150908051906020019062000c3c92919062000f28565b50508080600101915050620009f0565b81805480602002602001604051908101604052809291908181526020016000905b8282101562000d2f578382906000526020600020018054600181600116156101000203166002900480601f01602080910402602001604051908101604052809291908181526020018280546001816001161561010002031660029004801562000d1a5780601f1062000cee5761010080835404028352916020019162000d1a565b820191906000526020600020905b81548152906001019060200180831162000cfc57829003601f168201915b50505050508152602001906001019062000c6d565b5050505092505050919050565b60016020528060005260406000206000915054906101000a900473ffffffffffffffffffffffffffffffffffffffff1681565b60606000808373ffffffffffffffffffffffffffffffffffffffff1673ffffffffffffffffffffffffffffffffffffffff16815260200190815260200160002060009054906101000a900473ffffffffffffffffffffffffffffffffffffffff1673ffffffffffffffffffffffffffffffffffffffff166317d7de7c6040518163ffffffff167c0100000000000000000000000000000000000000000000000000000000028152600401600060405180830381600087803b15801562000e3457600080fd5b505af115801562000e49573d6000803e3d6000fd5b505050506040513d6000823e3d601f19601f8201168201806040525062000e74919081019062001268565b9050919050565b60008060008373ffffffffffffffffffffffffffffffffffffffff1673ffffffffffffffffffffffffffffffffffffffff16815260200190815260200160002060009054906101000a900473ffffffffffffffffffffffffffffffffffffffff169050919050565b60006020528060005260406000206000915054906101000a900473ffffffffffffffffffffffffffffffffffffffff1681565b600062000f233362000486565b905090565b828054600181600116156101000203166002900490600052602060002090601f016020900481019282601f1062000f6b57805160ff191683800117855562000f9c565b8280016001018555821562000f9c579182015b8281111562000f9b57825182559160200191906001019062000f7e565b5b50905062000fab919062000fd1565b5090565b6040516106f080620017ee83390190565b6040516113a58062001ede83390190565b62000ff691905b8082111562000ff257600081600090555060010162000fd8565b5090565b90565b600062001007823562001713565b905092915050565b600082601f83011215156200102357600080fd5b81516200103a62001034826200163d565b6200160f565b915081818352602084019350602081019050838560208402820111156200106057600080fd5b60005b838110156200109457816200107988826200109e565b84526020840193506020830192505060018101905062001063565b5050505092915050565b6000620010ac825162001733565b905092915050565b6000620010c2823562001747565b905092915050565b600082601f8301121515620010de57600080fd5b8135620010f5620010ef8262001666565b6200160f565b915080825260208301602083018583830111156200111257600080fd5b6200111f83828462001797565b50505092915050565b600082601f83011215156200113c57600080fd5b8151620011536200114d8262001666565b6200160f565b915080825260208301602083018583830111156200117057600080fd5b6200117d838284620017a6565b50505092915050565b6000602082840312156200119957600080fd5b6000620011a98482850162000ff9565b91505092915050565b600060208284031215620011c557600080fd5b600082015167ffffffffffffffff811115620011e057600080fd5b620011ee848285016200100f565b91505092915050565b6000602082840312156200120a57600080fd5b60006200121a84828501620010b4565b91505092915050565b6000602082840312156200123657600080fd5b600082013567ffffffffffffffff8111156200125157600080fd5b6200125f84828501620010ca565b91505092915050565b6000602082840312156200127b57600080fd5b600082015167ffffffffffffffff8111156200129657600080fd5b620012a48482850162001128565b91505092915050565b60008060408385031215620012c157600080fd5b600083013567ffffffffffffffff811115620012dc57600080fd5b620012ea85828601620010ca565b925050602083013567ffffffffffffffff8111156200130857600080fd5b6200131685828601620010ca565b9150509250929050565b6200132b81620016f3565b82525050565b60006200133e82620016ad565b808452602084019350620013528362001693565b60005b828110156200138a576200136b8683516200140e565b6200137682620016d9565b915060208601955060018101905062001355565b50849250505092915050565b6000620013a382620016b8565b80845260208401935083602082028501620013be85620016a0565b60005b84811015620013fd578383038852620013dc8383516200147d565b9250620013e982620016e6565b9150602088019750600181019050620013c1565b508196508694505050505092915050565b62001419816200175b565b82525050565b6200142a816200176f565b82525050565b6200143b8162001783565b82525050565b60006200144e82620016ce565b80845262001464816020860160208601620017a6565b6200146f81620017dc565b602085010191505092915050565b60006200148a82620016c3565b808452620014a0816020860160208601620017a6565b620014ab81620017dc565b602085010191505092915050565b6000602082019050620014d0600083018462001320565b92915050565b60006020820190508181036000830152620014f2818462001331565b905092915050565b6000602082019050818103600083015262001516818462001396565b905092915050565b60006020820190506200153560008301846200141f565b92915050565b600060208201905062001552600083018462001430565b92915050565b600060208201905081810360008301526200157481846200147d565b905092915050565b6000602082019050818103600083015262001598818462001441565b905092915050565b60006040820190508181036000830152620015bc818562001441565b9050620015cd602083018462001320565b9392505050565b60006040820190508181036000830152620015f0818562001441565b9050818103602083015262001606818462001441565b90509392505050565b6000604051905081810181811067ffffffffffffffff821117156200163357600080fd5b8060405250919050565b600067ffffffffffffffff8211156200165557600080fd5b602082029050602081019050919050565b600067ffffffffffffffff8211156200167e57600080fd5b601f19601f8301169050602081019050919050565b6000602082019050919050565b6000602082019050919050565b600081519050919050565b600081519050919050565b600081519050919050565b600081519050919050565b6000602082019050919050565b6000602082019050919050565b600073ffffffffffffffffffffffffffffffffffffffff82169050919050565b600073ffffffffffffffffffffffffffffffffffffffff82169050919050565b60006200174082620016f3565b9050919050565b60006200175482620016f3565b9050919050565b60006200176882620016f3565b9050919050565b60006200177c82620016f3565b9050919050565b60006200179082620016f3565b9050919050565b82818337600083830152505050565b60005b83811015620017c6578082015181840152602081019050620017a9565b83811115620017d6576000848401525b50505050565b6000601f19601f83011690509190505600608060405234801561001057600080fd5b506040516106f03803806106f083398101806040526100329190810190610162565b8160009080519060200190610048929190610067565b50806001908051906020019061005f929190610067565b50505061025a565b828054600181600116156101000203166002900490600052602060002090601f016020900481019282601f106100a857805160ff19168380011785556100d6565b828001600101855582156100d6579182015b828111156100d55782518255916020019190600101906100ba565b5b5090506100e391906100e7565b5090565b61010991905b808211156101055760008160009055506001016100ed565b5090565b90565b600082601f830112151561011f57600080fd5b815161013261012d826101fb565b6101ce565b9150808252602083016020830185838301111561014e57600080fd5b610159838284610227565b50505092915050565b6000806040838503121561017557600080fd5b600083015167ffffffffffffffff81111561018f57600080fd5b61019b8582860161010c565b925050602083015167ffffffffffffffff8111156101b857600080fd5b6101c48582860161010c565b9150509250929050565b6000604051905081810181811067ffffffffffffffff821117156101f157600080fd5b8060405250919050565b600067ffffffffffffffff82111561021257600080fd5b601f19601f8301169050602081019050919050565b60005b8381101561024557808201518184015260208101905061022a565b83811115610254576000848401525b50505050565b610487806102696000396000f300608060405260043610610057576000357c0100000000000000000000000000000000000000000000000000000000900463ffffffff1680631327b8871461005c57806317d7de7c14610085578063487e2db6146100b0575b600080fd5b34801561006857600080fd5b50610083600480360361007e9190810190610288565b6100db565b005b34801561009157600080fd5b5061009a610144565b6040516100a79190610373565b60405180910390f35b3480156100bc57600080fd5b506100c56101e6565b6040516100d29190610351565b60405180910390f35b60028190806001815401808255809150509060018203906000526020600020016000909192909190916101000a81548173ffffffffffffffffffffffffffffffffffffffff021916908373ffffffffffffffffffffffffffffffffffffffff1602179055505050565b606060008054600181600116156101000203166002900480601f0160208091040260200160405190810160405280929190818152602001828054600181600116156101000203166002900480156101dc5780601f106101b1576101008083540402835291602001916101dc565b820191906000526020600020905b8154815290600101906020018083116101bf57829003601f168201915b5050505050905090565b6060600280548060200260200160405190810160405280929190818152602001828054801561026a57602002820191906000526020600020905b8160009054906101000a900473ffffffffffffffffffffffffffffffffffffffff1673ffffffffffffffffffffffffffffffffffffffff1681526020019060010190808311610220575b5050505050905090565b600061028082356103e5565b905092915050565b60006020828403121561029a57600080fd5b60006102a884828501610274565b91505092915050565b60006102bc826103a2565b8084526020840193506102ce83610395565b60005b82811015610300576102e486835161030c565b6102ed826103b8565b91506020860195506001810190506102d1565b50849250505092915050565b610315816103f7565b82525050565b6000610326826103ad565b80845261033a816020860160208601610409565b6103438161043c565b602085010191505092915050565b6000602082019050818103600083015261036b81846102b1565b905092915050565b6000602082019050818103600083015261038d818461031b565b905092915050565b6000602082019050919050565b600081519050919050565b600081519050919050565b6000602082019050919050565b600073ffffffffffffffffffffffffffffffffffffffff82169050919050565b60006103f0826103c5565b9050919050565b6000610402826103c5565b9050919050565b60005b8381101561042757808201518184015260208101905061040c565b83811115610436576000848401525b50505050565b6000601f19601f83011690509190505600a265627a7a7230582099716ad9f85a8d33662dcac93a1275cc84443ae17d4439ab7c6af9f33e3e61266c6578706572696d656e74616cf5003760806040523480156200001157600080fd5b50604051620013a5380380620013a58339810180604052620000379190810190620001bc565b81600090805190602001906200004f92919062000099565b5080600160006101000a81548173ffffffffffffffffffffffffffffffffffffffff021916908373ffffffffffffffffffffffffffffffffffffffff1602179055505050620002c7565b828054600181600116156101000203166002900490600052602060002090601f016020900481019282601f10620000dc57805160ff19168380011785556200010d565b828001600101855582156200010d579182015b828111156200010c578251825591602001919060010190620000ef565b5b5090506200011c919062000120565b5090565b6200014591905b808211156200014157600081600090555060010162000127565b5090565b90565b600062000156825162000271565b905092915050565b600082601f83011215156200017257600080fd5b815162000189620001838262000244565b62000216565b91508082526020830160208301858383011115620001a657600080fd5b620001b383828462000291565b50505092915050565b60008060408385031215620001d057600080fd5b600083015167ffffffffffffffff811115620001eb57600080fd5b620001f9858286016200015e565b92505060206200020c8582860162000148565b9150509250929050565b6000604051905081810181811067ffffffffffffffff821117156200023a57600080fd5b8060405250919050565b600067ffffffffffffffff8211156200025c57600080fd5b601f19601f8301169050602081019050919050565b600073ffffffffffffffffffffffffffffffffffffffff82169050919050565b60005b83811015620002b157808201518184015260208101905062000294565b83811115620002c1576000848401525b50505050565b6110ce80620002d76000396000f30060806040526004361062000073576000357c0100000000000000000000000000000000000000000000000000000000900463ffffffff1680630dfeba7a14620000785780631a6192a614620000a657806359b0190f14620000d6578063ccd96c77146200011a578063f682cec7146200014a575b600080fd5b3480156200008557600080fd5b50620000a460048036036200009e919081019062000786565b62000178565b005b348015620000b357600080fd5b50620000be62000306565b604051620000cd91906200094f565b60405180910390f35b348015620000e357600080fd5b50620001026004803603620000fc91908101906200075a565b62000349565b60405162000111919062000932565b60405180910390f35b3480156200012757600080fd5b5062000132620004ea565b6040516200014191906200090e565b60405180910390f35b3480156200015757600080fd5b50620001766004803603620001709190810190620007c7565b6200057a565b005b600160009054906101000a900473ffffffffffffffffffffffffffffffffffffffff1673ffffffffffffffffffffffffffffffffffffffff163373ffffffffffffffffffffffffffffffffffffffff16141515620001d557600080fd5b620001e08162000349565b1515620001ec57600080fd5b8173ffffffffffffffffffffffffffffffffffffffff16631327b887826040518263ffffffff167c01000000000000000000000000000000000000000000000000000000000281526004016200024391906200094f565b600060405180830381600087803b1580156200025e57600080fd5b505af115801562000273573d6000803e3d6000fd5b505050508073ffffffffffffffffffffffffffffffffffffffff16639e14a95f836040518263ffffffff167c0100000000000000000000000000000000000000000000000000000000028152600401620002ce91906200096c565b600060405180830381600087803b158015620002e957600080fd5b505af1158015620002fe573d6000803e3d6000fd5b505050505050565b6000600260008154811015156200031957fe5b9060005260206000200160009054906101000a900473ffffffffffffffffffffffffffffffffffffffff16905090565b600080600090505b600280549050811015620004df57600283604051808273ffffffffffffffffffffffffffffffffffffffff1673ffffffffffffffffffffffffffffffffffffffff166c010000000000000000000000000281526014019150506020604051808303816000865af1158015620003ca573d6000803e3d6000fd5b5050506040513d601f19601f82011682018060405250620003ef91908101906200072e565b60001916600280838154811015156200040457fe5b9060005260206000200160009054906101000a900473ffffffffffffffffffffffffffffffffffffffff16604051808273ffffffffffffffffffffffffffffffffffffffff1673ffffffffffffffffffffffffffffffffffffffff166c010000000000000000000000000281526014019150506020604051808303816000865af115801562000497573d6000803e3d6000fd5b5050506040513d601f19601f82011682018060405250620004bc91908101906200072e565b600019161415620004d15760019150620004e4565b808060010191505062000351565b600091505b50919050565b606060028054806020026020016040519081016040528092919081815260200182805480156200057057602002820191906000526020600020905b8160009054906101000a900473ffffffffffffffffffffffffffffffffffffffff1673ffffffffffffffffffffffffffffffffffffffff168152602001906001019080831162000525575b5050505050905090565b6000600160009054906101000a900473ffffffffffffffffffffffffffffffffffffffff1673ffffffffffffffffffffffffffffffffffffffff163373ffffffffffffffffffffffffffffffffffffffff16141515620005d957600080fd5b8282620005e56200067d565b620005f292919062000989565b604051809103906000f0801580156200060f573d6000803e3d6000fd5b50905060028190806001815401808255809150509060018203906000526020600020016000909192909190916101000a81548173ffffffffffffffffffffffffffffffffffffffff021916908373ffffffffffffffffffffffffffffffffffffffff16021790555050505050565b6040516105698062000b2c83390190565b60006200069c825162000a7b565b905092915050565b6000620006b2823562000a85565b905092915050565b6000620006c8823562000a99565b905092915050565b600082601f8301121515620006e457600080fd5b8135620006fb620006f582620009f2565b620009c4565b915080825260208301602083018583830111156200071857600080fd5b6200072583828462000ad5565b50505092915050565b6000602082840312156200074157600080fd5b600062000751848285016200068e565b91505092915050565b6000602082840312156200076d57600080fd5b60006200077d84828501620006a4565b91505092915050565b600080604083850312156200079a57600080fd5b6000620007aa85828601620006ba565b9250506020620007bd85828601620006a4565b9150509250929050565b60008060408385031215620007db57600080fd5b600083013567ffffffffffffffff811115620007f657600080fd5b6200080485828601620006d0565b925050602083013567ffffffffffffffff8111156200082257600080fd5b6200083085828601620006d0565b9150509250929050565b6000620008478262000a2c565b8084526020840193506200085b8362000a1f565b60005b82811015620008935762000874868351620008b0565b6200087f8262000a42565b91506020860195506001810190506200085e565b50849250505092915050565b620008aa8162000a6f565b82525050565b620008bb8162000aad565b82525050565b620008cc8162000ac1565b82525050565b6000620008df8262000a37565b808452620008f581602086016020860162000ae4565b620009008162000b1a565b602085010191505092915050565b600060208201905081810360008301526200092a81846200083a565b905092915050565b60006020820190506200094960008301846200089f565b92915050565b6000602082019050620009666000830184620008b0565b92915050565b6000602082019050620009836000830184620008c1565b92915050565b60006040820190508181036000830152620009a58185620008d2565b90508181036020830152620009bb8184620008d2565b90509392505050565b6000604051905081810181811067ffffffffffffffff82111715620009e857600080fd5b8060405250919050565b600067ffffffffffffffff82111562000a0a57600080fd5b601f19601f8301169050602081019050919050565b6000602082019050919050565b600081519050919050565b600081519050919050565b6000602082019050919050565b600073ffffffffffffffffffffffffffffffffffffffff82169050919050565b60008115159050919050565b6000819050919050565b600062000a928262000a4f565b9050919050565b600062000aa68262000a4f565b9050919050565b600062000aba8262000a4f565b9050919050565b600062000ace8262000a4f565b9050919050565b82818337600083830152505050565b60005b8381101562000b0457808201518184015260208101905062000ae7565b8381111562000b14576000848401525b50505050565b6000601f19601f83011690509190505600608060405234801561001057600080fd5b5060405161056938038061056983398101806040526100329190810190610162565b8160009080519060200190610048929190610067565b50806001908051906020019061005f929190610067565b50505061025a565b828054600181600116156101000203166002900490600052602060002090601f016020900481019282601f106100a857805160ff19168380011785556100d6565b828001600101855582156100d6579182015b828111156100d55782518255916020019190600101906100ba565b5b5090506100e391906100e7565b5090565b61010991905b808211156101055760008160009055506001016100ed565b5090565b90565b600082601f830112151561011f57600080fd5b815161013261012d826101fb565b6101ce565b9150808252602083016020830185838301111561014e57600080fd5b610159838284610227565b50505092915050565b6000806040838503121561017557600080fd5b600083015167ffffffffffffffff81111561018f57600080fd5b61019b8582860161010c565b925050602083015167ffffffffffffffff8111156101b857600080fd5b6101c48582860161010c565b9150509250929050565b6000604051905081810181811067ffffffffffffffff821117156101f157600080fd5b8060405250919050565b600067ffffffffffffffff82111561021257600080fd5b601f19601f8301169050602081019050919050565b60005b8381101561024557808201518184015260208101905061022a565b83811115610254576000848401525b50505050565b610300806102696000396000f30060806040526004361061004c576000357c0100000000000000000000000000000000000000000000000000000000900463ffffffff16806317d7de7c146100515780639e14a95f1461007c575b600080fd5b34801561005d57600080fd5b506100666100a5565b6040516100739190610223565b60405180910390f35b34801561008857600080fd5b506100a3600480360361009e91908101906101c4565b610147565b005b606060008054600181600116156101000203166002900480601f01602080910402602001604051908101604052809291908181526020018280546001816001161561010002031660029004801561013d5780601f106101125761010080835404028352916020019161013d565b820191906000526020600020905b81548152906001019060200180831161012057829003601f168201915b5050505050905090565b60028190806001815401808255809150509060018203906000526020600020016000909192909190916101000a81548173ffffffffffffffffffffffffffffffffffffffff021916908373ffffffffffffffffffffffffffffffffffffffff1602179055505050565b60006101bc8235610270565b905092915050565b6000602082840312156101d657600080fd5b60006101e4848285016101b0565b91505092915050565b60006101f882610245565b80845261020c816020860160208601610282565b610215816102b5565b602085010191505092915050565b6000602082019050818103600083015261023d81846101ed565b905092915050565b600081519050919050565b600073ffffffffffffffffffffffffffffffffffffffff82169050919050565b600061027b82610250565b9050919050565b60005b838110156102a0578082015181840152602081019050610285565b838111156102af576000848401525b50505050565b6000601f19601f83011690509190505600a265627a7a72305820d57db185bb8e968895649f7958bf3ee5ff33b96e972debe428a15b5d48cc80c76c6578706572696d656e74616cf50037a265627a7a7230582003549d76304110ca3252b7dafaab7c313581505a85e702087a357183cba593986c6578706572696d656e74616cf50037a265627a7a72305820b3f2f4c90f369dbcc37366f1d40330305de52119920232694dc13d35bc3eb4566c6578706572696d656e74616cf50037",
  "source": "pragma solidity ^0.4.2;\npragma experimental ABIEncoderV2;\n\ncontract Certify\n{\n\tmapping(address => User) public allUsers;\n\tmapping(address => Org) public allOrgs;\n\t\n\tevent print(string value1);\n\n\tstring public testWord;\n\n\tfunction Certify() public \n\t{\n        testWord = \"Blockchain at UCI\";\n    }\n\n    function setTestWord() public returns (string)\n    {\n    \ttestWord = \"HI\";\n    }\n    \n    function viewTestWord() public view returns (string)\n    {\n        return testWord;\n    }\n    \n    function viewUsersName(address identifier) public view returns (string)\n    {\n        return allUsers[identifier].getName();\n    }\n    \n    function viewUsersCertificates(address identifier) public view returns (Certification[])\n    {\n        return allUsers[identifier].getCertifications();\n    }\n    \n    // function viewUsersCertificateNames(address identifier) public view returns (string[])\n    // {\n    //     string[] names;\n    //     for(uint i = 0; i < allUsers[identifier].getCertifications().length; i++)\n\t   //  {\n\t   //      names.push(allUsers[identifier].getCertifications()[i].getName());\n\t   //  }\n\t   //  return names;\n    // }\n\n    function viewUsersCertificateNames(User user) public view returns (string[])\n    {\n        string[] names;\n        for(uint i = 0; i < user.getCertifications().length; i++)\n\t    {\n\t        names.push(user.getCertifications()[i].getName());\n\t    }\n\t    return names;\n    }\n\n\t// identifier is either a address or a username\n\t// We'll only use address for now but later add if statement to differentiate\n\tfunction searchForUser(address identifier) returns (User)\n\t{\n\t\treturn allUsers[identifier];\n\t}\n\n\t// When user creates an account\n\t// Only function that Users call\n\tfunction createNewUser(string _name, string _username) returns (address)\n\t{\n\t\tUser user = new User(_name, _username);\n\t\tallUsers[msg.sender] = user;\n\t\treturn msg.sender;\n\t}\n\n\tfunction createNewOrg(string _name)\n\t{\n\t\tOrg org = new Org(_name, msg.sender);\n\t\tallOrgs[msg.sender] = org;\n\t}\n\n\tfunction getUser(address user_address) returns (User)\n\t{\n\t\treturn allUsers[user_address];\n\t}\n\n\tfunction getOrg(address org_address) public view returns (Org)\n\t{\n\t\treturn allOrgs[org_address];\n\t}\n\n\tfunction getCurrentOrg() public view returns (Org)\n\t{\n\t\treturn getOrg(msg.sender);\n\t}\n\t\n\tfunction getUserFromAddress(address identifier) public view returns (User)\n\t{\n\t    return allUsers[identifier];\n\t}\n\n}\n\ncontract User \n{\n\tstring name;\n\tstring username;\n\tCertification[] certificationsRecieved;\n\t\n\tfunction getName() returns (string)\n\t{\n\t    return name;\n\t}\n\n\tfunction User(string _name, string _username) public\n\t{\n\t\tname = _name;\n\t\tusername = _username;\n\t}\n\n\tfunction getCertifications() returns (Certification[])\n\t{\n\t\treturn certificationsRecieved;\n\t}\n\n\tfunction addToCertificationsRecieved(Certification certificate) \n\t{\n\t\tcertificationsRecieved.push(certificate);\n\t}\n\n}\n\ncontract Org\n{\n\tstring name;\n\t\n\t// address of the creator of the org\n\taddress addressBelongsTo;\n\tCertification[] certificationsOwned;\n\n\tfunction Org(string _name, address _addressBelongsTo) public\n\t{\n\t\tname = _name;\n\t\taddressBelongsTo = _addressBelongsTo;\n\t}\n\n\tfunction createNewCertificate(string _name, string _description)\n\t{\n\t    require(msg.sender == addressBelongsTo);\n\t\tCertification certificate = new Certification(_name, _description);\n\t\tcertificationsOwned.push(certificate);\n\t}\n\n\tfunction linkUserWithCertificate(User user, Certification certificate)\n\t{\n\t    require(msg.sender == addressBelongsTo);\n\t    // need to require that the certification is in the org's certificationsOwned\n\t    require(ownsCertification(certificate));\n\t\tuser.addToCertificationsRecieved(certificate);\n\t\tcertificate.addToRecievers(user);\n\t}\n\t\n\t// determine if certification is inside certificationsOwned\n\tfunction ownsCertification(Certification certificate) returns (bool)\n\t{\n\t    for (uint i = 0; i < certificationsOwned.length; i++)\n\t    {\n\t        if (sha256(certificationsOwned[i]) == sha256(certificate))\n\t        {\n\t            return true;\n\t        }\n\t    }\n\t    return false;\n\t}\n\t\n\tfunction viewFirstCertificate() public view returns (Certification)\n\t{\n\t    return certificationsOwned[0];\n\t}\n\t\n\tfunction viewAllCertificates() public view returns (Certification[])\n\t{\n\t    return certificationsOwned;\n\t}\n\n}\n\ncontract Certification\n{\n\tstring name;\n\tstring description;\n\tUser[] recievers;\n\n\tfunction Certification(string _name, string _description) public\n\t{\n\t\tname = _name;\n\t\tdescription = _description;\n\t}\n\n\tfunction addToRecievers(User user)\n\t{\n\t\trecievers.push(user);\n\t}\n\t\n\tfunction getName() returns (string)\n\t{\n\t    return name;\n\t}\n}\n\n",
  "sourcePath": "/Users/andrei/degreeProof/contracts/Certify.sol",
  "compiler": {
    "name": "solc",
    "version": "0.4.24+commit.e67f0147.Emscripten.clang"
  },
  "schemaVersion": "2.0.1",
  "updatedAt": "2018-10-21T08:41:15.319Z"
}