{
  "contractName": "EntitiyManager",
  "abi": [
    {
      "constant": true,
      "inputs": [],
      "name": "testWord",
      "outputs": [
        {
          "name": "",
          "type": "string"
        }
      ],
      "payable": false,
      "stateMutability": "view",
      "type": "function"
    },
    {
      "inputs": [],
      "payable": false,
      "stateMutability": "nonpayable",
      "type": "constructor"
    },
    {
      "constant": false,
      "inputs": [
        {
          "name": "identifier",
          "type": "address"
        }
      ],
      "name": "searchForUser",
      "outputs": [
        {
          "name": "",
          "type": "address"
        }
      ],
      "payable": false,
      "stateMutability": "nonpayable",
      "type": "function"
    },
    {
      "constant": false,
      "inputs": [
        {
          "name": "_name",
          "type": "string"
        },
        {
          "name": "_username",
          "type": "string"
        }
      ],
      "name": "createNewUser",
      "outputs": [],
      "payable": false,
      "stateMutability": "nonpayable",
      "type": "function"
    },
    {
      "constant": false,
      "inputs": [
        {
          "name": "_name",
          "type": "string"
        }
      ],
      "name": "createNewOrg",
      "outputs": [],
      "payable": false,
      "stateMutability": "nonpayable",
      "type": "function"
    },
    {
      "constant": false,
      "inputs": [
        {
          "name": "user_address",
          "type": "address"
        }
      ],
      "name": "getUser",
      "outputs": [
        {
          "name": "",
          "type": "address"
        }
      ],
      "payable": false,
      "stateMutability": "nonpayable",
      "type": "function"
    },
    {
      "constant": false,
      "inputs": [
        {
          "name": "org_address",
          "type": "address"
        }
      ],
      "name": "getOrg",
      "outputs": [
        {
          "name": "",
          "type": "address"
        }
      ],
      "payable": false,
      "stateMutability": "nonpayable",
      "type": "function"
    },
    {
      "constant": false,
      "inputs": [],
      "name": "getCurrentOrg",
      "outputs": [
        {
          "name": "",
          "type": "address"
        }
      ],
      "payable": false,
      "stateMutability": "nonpayable",
      "type": "function"
    }
  ],
  "bytecode": "0x608060405234801561001057600080fd5b506040805190810160405280601181526020017f426c6f636b636861696e206174205543490000000000000000000000000000008152506002908051906020019061005c929190610062565b50610107565b828054600181600116156101000203166002900490600052602060002090601f016020900481019282601f106100a357805160ff19168380011785556100d1565b828001600101855582156100d1579182015b828111156100d05782518255916020019190600101906100b5565b5b5090506100de91906100e2565b5090565b61010491905b808211156101005760008160009055506001016100e8565b5090565b90565b6113ec806101166000396000f300608060405260043610610083576000357c0100000000000000000000000000000000000000000000000000000000900463ffffffff1680631f1f865214610088578063408b81ca1461010b5780634dfa3f181461019b5780635b589c961461024a57806365fe0816146102cd5780636f77926b14610336578063ef76fb59146103b9575b600080fd5b34801561009457600080fd5b506100c9600480360381019080803573ffffffffffffffffffffffffffffffffffffffff169060200190929190505050610410565b604051808273ffffffffffffffffffffffffffffffffffffffff1673ffffffffffffffffffffffffffffffffffffffff16815260200191505060405180910390f35b34801561011757600080fd5b50610120610479565b6040518080602001828103825283818151815260200191508051906020019080838360005b83811015610160578082015181840152602081019050610145565b50505050905090810190601f16801561018d5780820380516001836020036101000a031916815260200191505b509250505060405180910390f35b3480156101a757600080fd5b50610248600480360381019080803590602001908201803590602001908080601f0160208091040260200160405190810160405280939291908181526020018383808284378201915050505050509192919290803590602001908201803590602001908080601f0160208091040260200160405190810160405280939291908181526020018383808284378201915050505050509192919290505050610517565b005b34801561025657600080fd5b5061028b600480360381019080803573ffffffffffffffffffffffffffffffffffffffff16906020019092919050505061069f565b604051808273ffffffffffffffffffffffffffffffffffffffff1673ffffffffffffffffffffffffffffffffffffffff16815260200191505060405180910390f35b3480156102d957600080fd5b50610334600480360381019080803590602001908201803590602001908080601f0160208091040260200160405190810160405280939291908181526020018383808284378201915050505050509192919290505050610707565b005b34801561034257600080fd5b50610377600480360381019080803573ffffffffffffffffffffffffffffffffffffffff169060200190929190505050610822565b604051808273ffffffffffffffffffffffffffffffffffffffff1673ffffffffffffffffffffffffffffffffffffffff16815260200191505060405180910390f35b3480156103c557600080fd5b506103ce61088a565b604051808273ffffffffffffffffffffffffffffffffffffffff1673ffffffffffffffffffffffffffffffffffffffff16815260200191505060405180910390f35b6000600160008373ffffffffffffffffffffffffffffffffffffffff1673ffffffffffffffffffffffffffffffffffffffff16815260200190815260200160002060009054906101000a900473ffffffffffffffffffffffffffffffffffffffff169050919050565b60028054600181600116156101000203166002900480601f01602080910402602001604051908101604052809291908181526020018280546001816001161561010002031660029004801561050f5780601f106104e45761010080835404028352916020019161050f565b820191906000526020600020905b8154815290600101906020018083116104f257829003601f168201915b505050505081565b6000828261052361089a565b808060200180602001838103835285818151815260200191508051906020019080838360005b83811015610564578082015181840152602081019050610549565b50505050905090810190601f1680156105915780820380516001836020036101000a031916815260200191505b50838103825284818151815260200191508051906020019080838360005b838110156105ca5780820151818401526020810190506105af565b50505050905090810190601f1680156105f75780820380516001836020036101000a031916815260200191505b50945050505050604051809103906000f08015801561061a573d6000803e3d6000fd5b509050806000803373ffffffffffffffffffffffffffffffffffffffff1673ffffffffffffffffffffffffffffffffffffffff16815260200190815260200160002060006101000a81548173ffffffffffffffffffffffffffffffffffffffff021916908373ffffffffffffffffffffffffffffffffffffffff160217905550505050565b60008060008373ffffffffffffffffffffffffffffffffffffffff1673ffffffffffffffffffffffffffffffffffffffff16815260200190815260200160002060009054906101000a900473ffffffffffffffffffffffffffffffffffffffff169050919050565b6000816107126108aa565b8080602001828103825283818151815260200191508051906020019080838360005b8381101561074f578082015181840152602081019050610734565b50505050905090810190601f16801561077c5780820380516001836020036101000a031916815260200191505b5092505050604051809103906000f08015801561079d573d6000803e3d6000fd5b50905080600160003373ffffffffffffffffffffffffffffffffffffffff1673ffffffffffffffffffffffffffffffffffffffff16815260200190815260200160002060006101000a81548173ffffffffffffffffffffffffffffffffffffffff021916908373ffffffffffffffffffffffffffffffffffffffff1602179055505050565b60008060008373ffffffffffffffffffffffffffffffffffffffff1673ffffffffffffffffffffffffffffffffffffffff16815260200190815260200160002060009054906101000a900473ffffffffffffffffffffffffffffffffffffffff169050919050565b600061089533610410565b905090565b604051610349806108bb83390190565b6040516107bd80610c04833901905600608060405234801561001057600080fd5b5060405161034938038061034983398101806040528101908080518201929190602001805182019291905050508160009080519060200190610053929190610072565b50806001908051906020019061006a929190610072565b505050610117565b828054600181600116156101000203166002900490600052602060002090601f016020900481019282601f106100b357805160ff19168380011785556100e1565b828001600101855582156100e1579182015b828111156100e05782518255916020019190600101906100c5565b5b5090506100ee91906100f2565b5090565b61011491905b808211156101105760008160009055506001016100f8565b5090565b90565b610223806101266000396000f30060806040526004361061004c576000357c0100000000000000000000000000000000000000000000000000000000900463ffffffff1680631327b88714610051578063487e2db614610094575b600080fd5b34801561005d57600080fd5b50610092600480360381019080803573ffffffffffffffffffffffffffffffffffffffff169060200190929190505050610100565b005b3480156100a057600080fd5b506100a9610169565b6040518080602001828103825283818151815260200191508051906020019060200280838360005b838110156100ec5780820151818401526020810190506100d1565b505050509050019250505060405180910390f35b60028190806001815401808255809150509060018203906000526020600020016000909192909190916101000a81548173ffffffffffffffffffffffffffffffffffffffff021916908373ffffffffffffffffffffffffffffffffffffffff1602179055505050565b606060028054806020026020016040519081016040528092919081815260200182805480156101ed57602002820191906000526020600020905b8160009054906101000a900473ffffffffffffffffffffffffffffffffffffffff1673ffffffffffffffffffffffffffffffffffffffff16815260200190600101908083116101a3575b50505050509050905600a165627a7a72305820c3c4d67b95d121235920fda4a73093c5bce5fe1dcf57d67d105a3fe4bf99cb730029608060405234801561001057600080fd5b506040516107bd3803806107bd833981018060405281019080805182019291905050508060009080519060200190610049929190610050565b50506100f5565b828054600181600116156101000203166002900490600052602060002090601f016020900481019282601f1061009157805160ff19168380011785556100bf565b828001600101855582156100bf579182015b828111156100be5782518255916020019190600101906100a3565b5b5090506100cc91906100d0565b5090565b6100f291905b808211156100ee5760008160009055506001016100d6565b5090565b90565b6106b9806101046000396000f30060806040526004361061004c576000357c0100000000000000000000000000000000000000000000000000000000900463ffffffff1680630dfeba7a14610051578063f682cec7146100b4575b600080fd5b34801561005d57600080fd5b506100b2600480360381019080803573ffffffffffffffffffffffffffffffffffffffff169060200190929190803573ffffffffffffffffffffffffffffffffffffffff169060200190929190505050610163565b005b3480156100c057600080fd5b50610161600480360381019080803590602001908201803590602001908080601f0160208091040260200160405190810160405280939291908181526020018383808284378201915050505050509192919290803590602001908201803590602001908080601f01602080910402602001604051908101604052809392919081815260200183838082843782019150505050505091929192905050506102cd565b005b8173ffffffffffffffffffffffffffffffffffffffff16631327b887826040518263ffffffff167c0100000000000000000000000000000000000000000000000000000000028152600401808273ffffffffffffffffffffffffffffffffffffffff1673ffffffffffffffffffffffffffffffffffffffff168152602001915050600060405180830381600087803b1580156101fe57600080fd5b505af1158015610212573d6000803e3d6000fd5b505050508073ffffffffffffffffffffffffffffffffffffffff16639e14a95f836040518263ffffffff167c0100000000000000000000000000000000000000000000000000000000028152600401808273ffffffffffffffffffffffffffffffffffffffff1673ffffffffffffffffffffffffffffffffffffffff168152602001915050600060405180830381600087803b1580156102b157600080fd5b505af11580156102c5573d6000803e3d6000fd5b505050505050565b600082826102d961043e565b808060200180602001838103835285818151815260200191508051906020019080838360005b8381101561031a5780820151818401526020810190506102ff565b50505050905090810190601f1680156103475780820380516001836020036101000a031916815260200191505b50838103825284818151815260200191508051906020019080838360005b83811015610380578082015181840152602081019050610365565b50505050905090810190601f1680156103ad5780820380516001836020036101000a031916815260200191505b50945050505050604051809103906000f0801580156103d0573d6000803e3d6000fd5b50905060018190806001815401808255809150509060018203906000526020600020016000909192909190916101000a81548173ffffffffffffffffffffffffffffffffffffffff021916908373ffffffffffffffffffffffffffffffffffffffff16021790555050505050565b60405161023f8061044f833901905600608060405234801561001057600080fd5b5060405161023f38038061023f83398101806040528101908080518201929190602001805182019291905050508160009080519060200190610053929190610072565b50806001908051906020019061006a929190610072565b505050610117565b828054600181600116156101000203166002900490600052602060002090601f016020900481019282601f106100b357805160ff19168380011785556100e1565b828001600101855582156100e1579182015b828111156100e05782518255916020019190600101906100c5565b5b5090506100ee91906100f2565b5090565b61011491905b808211156101105760008160009055506001016100f8565b5090565b90565b610119806101266000396000f300608060405260043610603f576000357c0100000000000000000000000000000000000000000000000000000000900463ffffffff1680639e14a95f146044575b600080fd5b348015604f57600080fd5b506082600480360381019080803573ffffffffffffffffffffffffffffffffffffffff1690602001909291905050506084565b005b60028190806001815401808255809150509060018203906000526020600020016000909192909190916101000a81548173ffffffffffffffffffffffffffffffffffffffff021916908373ffffffffffffffffffffffffffffffffffffffff16021790555050505600a165627a7a723058207bfb09f1cb933578d9d644cf460bd576600219b592772e0af8c5e85e5d5299100029a165627a7a7230582097365a054d87b1943caf01c790d88d4d68a65184e4fc84e0d210d0d3f69c57860029a165627a7a72305820ffbfa7de4ecc2f4ba07a3bb4e61f0f3a2aa137cbe5ce0273c618e0fc7e7cce640029",
  "source": "pragma solidity ^0.4.2;\n\ncontract EntitiyManager\n{\n\tmapping(address => User) allUsers;\n\tmapping(address => Org) allOrgs;\n\n\tstring public testWord;\n\n\tfunction EntitiyManager() public \n\t{\n        testWord = \"Blockchain at UCI\";\n    }\n\n\t// identifier is either a address or a username\n\t// We'll only use address for now but later add if statement to differentiate\n\tfunction searchForUser(address identifier) returns (User)\n\t{\n\t\treturn allUsers[identifier];\n\t}\n\n\t// When user creates an account\n\t// Only function that Users call\n\tfunction createNewUser(string _name, string _username)\n\t{\n\t\tUser user = new User(_name, _username);\n\t\tallUsers[msg.sender] = user;\n\t}\n\n\tfunction createNewOrg(string _name)\n\t{\n\t\tOrg org = new Org(_name);\n\t\tallOrgs[msg.sender] = org;\n\t}\n\n\tfunction getUser(address user_address) returns (User)\n\t{\n\t\treturn allUsers[user_address];\n\t}\n\n\tfunction getOrg(address org_address) returns (Org)\n\t{\n\t\treturn allOrgs[org_address];\n\t}\n\n\tfunction getCurrentOrg() returns (Org)\n\t{\n\t\treturn getOrg(msg.sender);\n\t}\n\n}\n\ncontract User \n{\n\tstring name;\n\tstring username;\n\tCertification[] certificationsRecieved;\n\n\tfunction User(string _name, string _username) public\n\t{\n\t\tname = _name;\n\t\tusername = _username;\n\t}\n\n\tfunction getCertifications() returns (Certification[])\n\t{\n\t\treturn certificationsRecieved;\n\t}\n\n\tfunction addToCertificationsRecieved(Certification certificate)\n\t{\n\t\tcertificationsRecieved.push(certificate);\n\t}\n\n}\n\ncontract Org\n{\n\tstring name;\n\tCertification[] certificationsOwned;\n\n\tfunction Org(string _name) public\n\t{\n\t\tname = _name;\n\t}\n\n\tfunction createNewCertificate(string _name, string _description)\n\t{\n\t\tCertification certificate = new Certification(_name, _description);\n\t\tcertificationsOwned.push(certificate);\n\t}\n\n\tfunction linkUserWithCertificate(User user, Certification certificate)\n\t{\n\t\tuser.addToCertificationsRecieved(certificate);\n\t\tcertificate.addToRecievers(user);\n\t}\n\n}\n\ncontract Certification\n{\n\tstring name;\n\tstring description;\n\tUser[] recievers;\n\n\tfunction Certification(string _name, string _description) public\n\t{\n\t\tname = _name;\n\t\tdescription = _description;\n\t}\n\n\tfunction addToRecievers(User user)\n\t{\n\t\trecievers.push(user);\n\t}\n}\n\n",
  "sourcePath": "/Users/andrei/degreeProof/contracts/Certify.sol",
  "compiler": {
    "name": "solc",
    "version": "0.4.24+commit.e67f0147.Emscripten.clang"
  },
  "schemaVersion": "2.0.1",
  "updatedAt": "2018-10-21T04:00:45.824Z"
}