{
  "contractName": "Org",
  "abi": [
    {
      "inputs": [
        {
          "name": "_name",
          "type": "string"
        },
        {
          "name": "_addressBelongsTo",
          "type": "address"
        }
      ],
      "payable": false,
      "stateMutability": "nonpayable",
      "type": "constructor"
    },
    {
      "constant": false,
      "inputs": [
        {
          "name": "_name",
          "type": "string"
        },
        {
          "name": "_description",
          "type": "string"
        }
      ],
      "name": "createNewCertificate",
      "outputs": [],
      "payable": false,
      "stateMutability": "nonpayable",
      "type": "function"
    },
    {
      "constant": false,
      "inputs": [
        {
          "name": "user",
          "type": "address"
        },
        {
          "name": "certificate",
          "type": "address"
        }
      ],
      "name": "linkUserWithCertificate",
      "outputs": [],
      "payable": false,
      "stateMutability": "nonpayable",
      "type": "function"
    },
    {
      "constant": false,
      "inputs": [
        {
          "name": "certificate",
          "type": "address"
        }
      ],
      "name": "ownsCertification",
      "outputs": [
        {
          "name": "",
          "type": "bool"
        }
      ],
      "payable": false,
      "stateMutability": "nonpayable",
      "type": "function"
    },
    {
      "constant": true,
      "inputs": [],
      "name": "viewFirstCertificate",
      "outputs": [
        {
          "name": "",
          "type": "address"
        }
      ],
      "payable": false,
      "stateMutability": "view",
      "type": "function"
    },
    {
      "constant": true,
      "inputs": [],
      "name": "viewAllCertificates",
      "outputs": [
        {
          "name": "",
          "type": "address[]"
        }
      ],
      "payable": false,
      "stateMutability": "view",
      "type": "function"
    }
  ],
  "bytecode": "0x60806040523480156200001157600080fd5b50604051620013a5380380620013a58339810180604052620000379190810190620001bc565b81600090805190602001906200004f92919062000099565b5080600160006101000a81548173ffffffffffffffffffffffffffffffffffffffff021916908373ffffffffffffffffffffffffffffffffffffffff1602179055505050620002c7565b828054600181600116156101000203166002900490600052602060002090601f016020900481019282601f10620000dc57805160ff19168380011785556200010d565b828001600101855582156200010d579182015b828111156200010c578251825591602001919060010190620000ef565b5b5090506200011c919062000120565b5090565b6200014591905b808211156200014157600081600090555060010162000127565b5090565b90565b600062000156825162000271565b905092915050565b600082601f83011215156200017257600080fd5b815162000189620001838262000244565b62000216565b91508082526020830160208301858383011115620001a657600080fd5b620001b383828462000291565b50505092915050565b60008060408385031215620001d057600080fd5b600083015167ffffffffffffffff811115620001eb57600080fd5b620001f9858286016200015e565b92505060206200020c8582860162000148565b9150509250929050565b6000604051905081810181811067ffffffffffffffff821117156200023a57600080fd5b8060405250919050565b600067ffffffffffffffff8211156200025c57600080fd5b601f19601f8301169050602081019050919050565b600073ffffffffffffffffffffffffffffffffffffffff82169050919050565b60005b83811015620002b157808201518184015260208101905062000294565b83811115620002c1576000848401525b50505050565b6110ce80620002d76000396000f30060806040526004361062000073576000357c0100000000000000000000000000000000000000000000000000000000900463ffffffff1680630dfeba7a14620000785780631a6192a614620000a657806359b0190f14620000d6578063ccd96c77146200011a578063f682cec7146200014a575b600080fd5b3480156200008557600080fd5b50620000a460048036036200009e919081019062000786565b62000178565b005b348015620000b357600080fd5b50620000be62000306565b604051620000cd91906200094f565b60405180910390f35b348015620000e357600080fd5b50620001026004803603620000fc91908101906200075a565b62000349565b60405162000111919062000932565b60405180910390f35b3480156200012757600080fd5b5062000132620004ea565b6040516200014191906200090e565b60405180910390f35b3480156200015757600080fd5b50620001766004803603620001709190810190620007c7565b6200057a565b005b600160009054906101000a900473ffffffffffffffffffffffffffffffffffffffff1673ffffffffffffffffffffffffffffffffffffffff163373ffffffffffffffffffffffffffffffffffffffff16141515620001d557600080fd5b620001e08162000349565b1515620001ec57600080fd5b8173ffffffffffffffffffffffffffffffffffffffff16631327b887826040518263ffffffff167c01000000000000000000000000000000000000000000000000000000000281526004016200024391906200094f565b600060405180830381600087803b1580156200025e57600080fd5b505af115801562000273573d6000803e3d6000fd5b505050508073ffffffffffffffffffffffffffffffffffffffff16639e14a95f836040518263ffffffff167c0100000000000000000000000000000000000000000000000000000000028152600401620002ce91906200096c565b600060405180830381600087803b158015620002e957600080fd5b505af1158015620002fe573d6000803e3d6000fd5b505050505050565b6000600260008154811015156200031957fe5b9060005260206000200160009054906101000a900473ffffffffffffffffffffffffffffffffffffffff16905090565b600080600090505b600280549050811015620004df57600283604051808273ffffffffffffffffffffffffffffffffffffffff1673ffffffffffffffffffffffffffffffffffffffff166c010000000000000000000000000281526014019150506020604051808303816000865af1158015620003ca573d6000803e3d6000fd5b5050506040513d601f19601f82011682018060405250620003ef91908101906200072e565b60001916600280838154811015156200040457fe5b9060005260206000200160009054906101000a900473ffffffffffffffffffffffffffffffffffffffff16604051808273ffffffffffffffffffffffffffffffffffffffff1673ffffffffffffffffffffffffffffffffffffffff166c010000000000000000000000000281526014019150506020604051808303816000865af115801562000497573d6000803e3d6000fd5b5050506040513d601f19601f82011682018060405250620004bc91908101906200072e565b600019161415620004d15760019150620004e4565b808060010191505062000351565b600091505b50919050565b606060028054806020026020016040519081016040528092919081815260200182805480156200057057602002820191906000526020600020905b8160009054906101000a900473ffffffffffffffffffffffffffffffffffffffff1673ffffffffffffffffffffffffffffffffffffffff168152602001906001019080831162000525575b5050505050905090565b6000600160009054906101000a900473ffffffffffffffffffffffffffffffffffffffff1673ffffffffffffffffffffffffffffffffffffffff163373ffffffffffffffffffffffffffffffffffffffff16141515620005d957600080fd5b8282620005e56200067d565b620005f292919062000989565b604051809103906000f0801580156200060f573d6000803e3d6000fd5b50905060028190806001815401808255809150509060018203906000526020600020016000909192909190916101000a81548173ffffffffffffffffffffffffffffffffffffffff021916908373ffffffffffffffffffffffffffffffffffffffff16021790555050505050565b6040516105698062000b2c83390190565b60006200069c825162000a7b565b905092915050565b6000620006b2823562000a85565b905092915050565b6000620006c8823562000a99565b905092915050565b600082601f8301121515620006e457600080fd5b8135620006fb620006f582620009f2565b620009c4565b915080825260208301602083018583830111156200071857600080fd5b6200072583828462000ad5565b50505092915050565b6000602082840312156200074157600080fd5b600062000751848285016200068e565b91505092915050565b6000602082840312156200076d57600080fd5b60006200077d84828501620006a4565b91505092915050565b600080604083850312156200079a57600080fd5b6000620007aa85828601620006ba565b9250506020620007bd85828601620006a4565b9150509250929050565b60008060408385031215620007db57600080fd5b600083013567ffffffffffffffff811115620007f657600080fd5b6200080485828601620006d0565b925050602083013567ffffffffffffffff8111156200082257600080fd5b6200083085828601620006d0565b9150509250929050565b6000620008478262000a2c565b8084526020840193506200085b8362000a1f565b60005b82811015620008935762000874868351620008b0565b6200087f8262000a42565b91506020860195506001810190506200085e565b50849250505092915050565b620008aa8162000a6f565b82525050565b620008bb8162000aad565b82525050565b620008cc8162000ac1565b82525050565b6000620008df8262000a37565b808452620008f581602086016020860162000ae4565b620009008162000b1a565b602085010191505092915050565b600060208201905081810360008301526200092a81846200083a565b905092915050565b60006020820190506200094960008301846200089f565b92915050565b6000602082019050620009666000830184620008b0565b92915050565b6000602082019050620009836000830184620008c1565b92915050565b60006040820190508181036000830152620009a58185620008d2565b90508181036020830152620009bb8184620008d2565b90509392505050565b6000604051905081810181811067ffffffffffffffff82111715620009e857600080fd5b8060405250919050565b600067ffffffffffffffff82111562000a0a57600080fd5b601f19601f8301169050602081019050919050565b6000602082019050919050565b600081519050919050565b600081519050919050565b6000602082019050919050565b600073ffffffffffffffffffffffffffffffffffffffff82169050919050565b60008115159050919050565b6000819050919050565b600062000a928262000a4f565b9050919050565b600062000aa68262000a4f565b9050919050565b600062000aba8262000a4f565b9050919050565b600062000ace8262000a4f565b9050919050565b82818337600083830152505050565b60005b8381101562000b0457808201518184015260208101905062000ae7565b8381111562000b14576000848401525b50505050565b6000601f19601f83011690509190505600608060405234801561001057600080fd5b5060405161056938038061056983398101806040526100329190810190610162565b8160009080519060200190610048929190610067565b50806001908051906020019061005f929190610067565b50505061025a565b828054600181600116156101000203166002900490600052602060002090601f016020900481019282601f106100a857805160ff19168380011785556100d6565b828001600101855582156100d6579182015b828111156100d55782518255916020019190600101906100ba565b5b5090506100e391906100e7565b5090565b61010991905b808211156101055760008160009055506001016100ed565b5090565b90565b600082601f830112151561011f57600080fd5b815161013261012d826101fb565b6101ce565b9150808252602083016020830185838301111561014e57600080fd5b610159838284610227565b50505092915050565b6000806040838503121561017557600080fd5b600083015167ffffffffffffffff81111561018f57600080fd5b61019b8582860161010c565b925050602083015167ffffffffffffffff8111156101b857600080fd5b6101c48582860161010c565b9150509250929050565b6000604051905081810181811067ffffffffffffffff821117156101f157600080fd5b8060405250919050565b600067ffffffffffffffff82111561021257600080fd5b601f19601f8301169050602081019050919050565b60005b8381101561024557808201518184015260208101905061022a565b83811115610254576000848401525b50505050565b610300806102696000396000f30060806040526004361061004c576000357c0100000000000000000000000000000000000000000000000000000000900463ffffffff16806317d7de7c146100515780639e14a95f1461007c575b600080fd5b34801561005d57600080fd5b506100666100a5565b6040516100739190610223565b60405180910390f35b34801561008857600080fd5b506100a3600480360361009e91908101906101c4565b610147565b005b606060008054600181600116156101000203166002900480601f01602080910402602001604051908101604052809291908181526020018280546001816001161561010002031660029004801561013d5780601f106101125761010080835404028352916020019161013d565b820191906000526020600020905b81548152906001019060200180831161012057829003601f168201915b5050505050905090565b60028190806001815401808255809150509060018203906000526020600020016000909192909190916101000a81548173ffffffffffffffffffffffffffffffffffffffff021916908373ffffffffffffffffffffffffffffffffffffffff1602179055505050565b60006101bc8235610270565b905092915050565b6000602082840312156101d657600080fd5b60006101e4848285016101b0565b91505092915050565b60006101f882610245565b80845261020c816020860160208601610282565b610215816102b5565b602085010191505092915050565b6000602082019050818103600083015261023d81846101ed565b905092915050565b600081519050919050565b600073ffffffffffffffffffffffffffffffffffffffff82169050919050565b600061027b82610250565b9050919050565b60005b838110156102a0578082015181840152602081019050610285565b838111156102af576000848401525b50505050565b6000601f19601f83011690509190505600a265627a7a72305820d57db185bb8e968895649f7958bf3ee5ff33b96e972debe428a15b5d48cc80c76c6578706572696d656e74616cf50037a265627a7a7230582003549d76304110ca3252b7dafaab7c313581505a85e702087a357183cba593986c6578706572696d656e74616cf50037",
  "source": "pragma solidity ^0.4.2;\npragma experimental ABIEncoderV2;\n\ncontract Certify\n{\n\tmapping(address => User) public allUsers;\n\tmapping(address => Org) public allOrgs;\n\t\n\tevent print(string value1);\n\n\tstring public testWord;\n\n\tfunction Certify() public \n\t{\n        testWord = \"Blockchain at UCI\";\n    }\n\n    function setTestWord() public returns (string)\n    {\n    \ttestWord = \"HI\";\n    }\n    \n    function viewTestWord() public view returns (string)\n    {\n        return testWord;\n    }\n    \n    function viewUsersName(address identifier) public view returns (string)\n    {\n        return allUsers[identifier].getName();\n    }\n    \n    function viewUsersCertificates(address identifier) public view returns (Certification[])\n    {\n        return allUsers[identifier].getCertifications();\n    }\n    \n    // function viewUsersCertificateNames(address identifier) public view returns (string[])\n    // {\n    //     string[] names;\n    //     for(uint i = 0; i < allUsers[identifier].getCertifications().length; i++)\n\t   //  {\n\t   //      names.push(allUsers[identifier].getCertifications()[i].getName());\n\t   //  }\n\t   //  return names;\n    // }\n\n    function viewUsersCertificateNames(User user) public view returns (string[])\n    {\n        string[] names;\n        for(uint i = 0; i < user.getCertifications().length; i++)\n\t    {\n\t        names.push(user.getCertifications()[i].getName());\n\t    }\n\t    return names;\n    }\n\n\t// identifier is either a address or a username\n\t// We'll only use address for now but later add if statement to differentiate\n\tfunction searchForUser(address identifier) returns (User)\n\t{\n\t\treturn allUsers[identifier];\n\t}\n\n\t// When user creates an account\n\t// Only function that Users call\n\tfunction createNewUser(string _name, string _username) returns (address)\n\t{\n\t\tUser user = new User(_name, _username);\n\t\tallUsers[msg.sender] = user;\n\t\treturn msg.sender;\n\t}\n\n\tfunction createNewOrg(string _name)\n\t{\n\t\tOrg org = new Org(_name, msg.sender);\n\t\tallOrgs[msg.sender] = org;\n\t}\n\n\tfunction getUser(address user_address) returns (User)\n\t{\n\t\treturn allUsers[user_address];\n\t}\n\n\tfunction getOrg(address org_address) public view returns (Org)\n\t{\n\t\treturn allOrgs[org_address];\n\t}\n\n\tfunction getCurrentOrg() public view returns (Org)\n\t{\n\t\treturn getOrg(msg.sender);\n\t}\n\t\n\tfunction getUserFromAddress(address identifier) public view returns (User)\n\t{\n\t    return allUsers[identifier];\n\t}\n\n}\n\ncontract User \n{\n\tstring name;\n\tstring username;\n\tCertification[] certificationsRecieved;\n\t\n\tfunction getName() returns (string)\n\t{\n\t    return name;\n\t}\n\n\tfunction User(string _name, string _username) public\n\t{\n\t\tname = _name;\n\t\tusername = _username;\n\t}\n\n\tfunction getCertifications() returns (Certification[])\n\t{\n\t\treturn certificationsRecieved;\n\t}\n\n\tfunction addToCertificationsRecieved(Certification certificate) \n\t{\n\t\tcertificationsRecieved.push(certificate);\n\t}\n\n}\n\ncontract Org\n{\n\tstring name;\n\t\n\t// address of the creator of the org\n\taddress addressBelongsTo;\n\tCertification[] certificationsOwned;\n\n\tfunction Org(string _name, address _addressBelongsTo) public\n\t{\n\t\tname = _name;\n\t\taddressBelongsTo = _addressBelongsTo;\n\t}\n\n\tfunction createNewCertificate(string _name, string _description)\n\t{\n\t    require(msg.sender == addressBelongsTo);\n\t\tCertification certificate = new Certification(_name, _description);\n\t\tcertificationsOwned.push(certificate);\n\t}\n\n\tfunction linkUserWithCertificate(User user, Certification certificate)\n\t{\n\t    require(msg.sender == addressBelongsTo);\n\t    // need to require that the certification is in the org's certificationsOwned\n\t    require(ownsCertification(certificate));\n\t\tuser.addToCertificationsRecieved(certificate);\n\t\tcertificate.addToRecievers(user);\n\t}\n\t\n\t// determine if certification is inside certificationsOwned\n\tfunction ownsCertification(Certification certificate) returns (bool)\n\t{\n\t    for (uint i = 0; i < certificationsOwned.length; i++)\n\t    {\n\t        if (sha256(certificationsOwned[i]) == sha256(certificate))\n\t        {\n\t            return true;\n\t        }\n\t    }\n\t    return false;\n\t}\n\t\n\tfunction viewFirstCertificate() public view returns (Certification)\n\t{\n\t    return certificationsOwned[0];\n\t}\n\t\n\tfunction viewAllCertificates() public view returns (Certification[])\n\t{\n\t    return certificationsOwned;\n\t}\n\n}\n\ncontract Certification\n{\n\tstring name;\n\tstring description;\n\tUser[] recievers;\n\n\tfunction Certification(string _name, string _description) public\n\t{\n\t\tname = _name;\n\t\tdescription = _description;\n\t}\n\n\tfunction addToRecievers(User user)\n\t{\n\t\trecievers.push(user);\n\t}\n\t\n\tfunction getName() returns (string)\n\t{\n\t    return name;\n\t}\n}\n\n",
  "sourcePath": "/Users/andrei/degreeProof/contracts/Certify.sol",
  "compiler": {
    "name": "solc",
    "version": "0.4.24+commit.e67f0147.Emscripten.clang"
  },
  "schemaVersion": "2.0.1",
  "updatedAt": "2018-10-21T08:41:14.826Z"
}