{
  "contractName": "User",
  "abi": [
    {
      "inputs": [
        {
          "name": "_name",
          "type": "string"
        },
        {
          "name": "_username",
          "type": "string"
        }
      ],
      "payable": false,
      "stateMutability": "nonpayable",
      "type": "constructor"
    },
    {
      "constant": false,
      "inputs": [],
      "name": "getName",
      "outputs": [
        {
          "name": "",
          "type": "string"
        }
      ],
      "payable": false,
      "stateMutability": "nonpayable",
      "type": "function"
    },
    {
      "constant": false,
      "inputs": [],
      "name": "getCertifications",
      "outputs": [
        {
          "name": "",
          "type": "address[]"
        }
      ],
      "payable": false,
      "stateMutability": "nonpayable",
      "type": "function"
    },
    {
      "constant": false,
      "inputs": [
        {
          "name": "certificate",
          "type": "address"
        }
      ],
      "name": "addToCertificationsRecieved",
      "outputs": [],
      "payable": false,
      "stateMutability": "nonpayable",
      "type": "function"
    }
  ],
  "bytecode": "0x608060405234801561001057600080fd5b506040516106f03803806106f083398101806040526100329190810190610162565b8160009080519060200190610048929190610067565b50806001908051906020019061005f929190610067565b50505061025a565b828054600181600116156101000203166002900490600052602060002090601f016020900481019282601f106100a857805160ff19168380011785556100d6565b828001600101855582156100d6579182015b828111156100d55782518255916020019190600101906100ba565b5b5090506100e391906100e7565b5090565b61010991905b808211156101055760008160009055506001016100ed565b5090565b90565b600082601f830112151561011f57600080fd5b815161013261012d826101fb565b6101ce565b9150808252602083016020830185838301111561014e57600080fd5b610159838284610227565b50505092915050565b6000806040838503121561017557600080fd5b600083015167ffffffffffffffff81111561018f57600080fd5b61019b8582860161010c565b925050602083015167ffffffffffffffff8111156101b857600080fd5b6101c48582860161010c565b9150509250929050565b6000604051905081810181811067ffffffffffffffff821117156101f157600080fd5b8060405250919050565b600067ffffffffffffffff82111561021257600080fd5b601f19601f8301169050602081019050919050565b60005b8381101561024557808201518184015260208101905061022a565b83811115610254576000848401525b50505050565b610487806102696000396000f300608060405260043610610057576000357c0100000000000000000000000000000000000000000000000000000000900463ffffffff1680631327b8871461005c57806317d7de7c14610085578063487e2db6146100b0575b600080fd5b34801561006857600080fd5b50610083600480360361007e9190810190610288565b6100db565b005b34801561009157600080fd5b5061009a610144565b6040516100a79190610373565b60405180910390f35b3480156100bc57600080fd5b506100c56101e6565b6040516100d29190610351565b60405180910390f35b60028190806001815401808255809150509060018203906000526020600020016000909192909190916101000a81548173ffffffffffffffffffffffffffffffffffffffff021916908373ffffffffffffffffffffffffffffffffffffffff1602179055505050565b606060008054600181600116156101000203166002900480601f0160208091040260200160405190810160405280929190818152602001828054600181600116156101000203166002900480156101dc5780601f106101b1576101008083540402835291602001916101dc565b820191906000526020600020905b8154815290600101906020018083116101bf57829003601f168201915b5050505050905090565b6060600280548060200260200160405190810160405280929190818152602001828054801561026a57602002820191906000526020600020905b8160009054906101000a900473ffffffffffffffffffffffffffffffffffffffff1673ffffffffffffffffffffffffffffffffffffffff1681526020019060010190808311610220575b5050505050905090565b600061028082356103e5565b905092915050565b60006020828403121561029a57600080fd5b60006102a884828501610274565b91505092915050565b60006102bc826103a2565b8084526020840193506102ce83610395565b60005b82811015610300576102e486835161030c565b6102ed826103b8565b91506020860195506001810190506102d1565b50849250505092915050565b610315816103f7565b82525050565b6000610326826103ad565b80845261033a816020860160208601610409565b6103438161043c565b602085010191505092915050565b6000602082019050818103600083015261036b81846102b1565b905092915050565b6000602082019050818103600083015261038d818461031b565b905092915050565b6000602082019050919050565b600081519050919050565b600081519050919050565b6000602082019050919050565b600073ffffffffffffffffffffffffffffffffffffffff82169050919050565b60006103f0826103c5565b9050919050565b6000610402826103c5565b9050919050565b60005b8381101561042757808201518184015260208101905061040c565b83811115610436576000848401525b50505050565b6000601f19601f83011690509190505600a265627a7a7230582099716ad9f85a8d33662dcac93a1275cc84443ae17d4439ab7c6af9f33e3e61266c6578706572696d656e74616cf50037",
  "source": "pragma solidity ^0.4.2;\npragma experimental ABIEncoderV2;\n\ncontract Certify\n{\n\tmapping(address => User) public allUsers;\n\tmapping(address => Org) public allOrgs;\n\t\n\tevent print(string value1);\n\n\tstring public testWord;\n\n\tfunction Certify() public \n\t{\n        testWord = \"Blockchain at UCI\";\n    }\n\n    function setTestWord() public returns (string)\n    {\n    \ttestWord = \"HI\";\n    }\n    \n    function viewTestWord() public view returns (string)\n    {\n        return testWord;\n    }\n    \n    function viewUsersName(address identifier) public view returns (string)\n    {\n        return allUsers[identifier].getName();\n    }\n    \n    function viewUsersCertificates(address identifier) public view returns (Certification[])\n    {\n        return allUsers[identifier].getCertifications();\n    }\n    \n    // function viewUsersCertificateNames(address identifier) public view returns (string[])\n    // {\n    //     string[] names;\n    //     for(uint i = 0; i < allUsers[identifier].getCertifications().length; i++)\n\t   //  {\n\t   //      names.push(allUsers[identifier].getCertifications()[i].getName());\n\t   //  }\n\t   //  return names;\n    // }\n\n    function viewUsersCertificateNames(User user) public view returns (string[])\n    {\n        string[] names;\n        for(uint i = 0; i < user.getCertifications().length; i++)\n\t    {\n\t        names.push(user.getCertifications()[i].getName());\n\t    }\n\t    return names;\n    }\n\n\t// identifier is either a address or a username\n\t// We'll only use address for now but later add if statement to differentiate\n\tfunction searchForUser(address identifier) returns (User)\n\t{\n\t\treturn allUsers[identifier];\n\t}\n\n\t// When user creates an account\n\t// Only function that Users call\n\tfunction createNewUser(string _name, string _username) returns (address)\n\t{\n\t\tUser user = new User(_name, _username);\n\t\tallUsers[msg.sender] = user;\n\t\treturn msg.sender;\n\t}\n\n\tfunction createNewOrg(string _name)\n\t{\n\t\tOrg org = new Org(_name, msg.sender);\n\t\tallOrgs[msg.sender] = org;\n\t}\n\n\tfunction getUser(address user_address) returns (User)\n\t{\n\t\treturn allUsers[user_address];\n\t}\n\n\tfunction getOrg(address org_address) public view returns (Org)\n\t{\n\t\treturn allOrgs[org_address];\n\t}\n\n\tfunction getCurrentOrg() public view returns (Org)\n\t{\n\t\treturn getOrg(msg.sender);\n\t}\n\t\n\tfunction getUserFromAddress(address identifier) public view returns (User)\n\t{\n\t    return allUsers[identifier];\n\t}\n\n}\n\ncontract User \n{\n\tstring name;\n\tstring username;\n\tCertification[] certificationsRecieved;\n\t\n\tfunction getName() returns (string)\n\t{\n\t    return name;\n\t}\n\n\tfunction User(string _name, string _username) public\n\t{\n\t\tname = _name;\n\t\tusername = _username;\n\t}\n\n\tfunction getCertifications() returns (Certification[])\n\t{\n\t\treturn certificationsRecieved;\n\t}\n\n\tfunction addToCertificationsRecieved(Certification certificate) \n\t{\n\t\tcertificationsRecieved.push(certificate);\n\t}\n\n}\n\ncontract Org\n{\n\tstring name;\n\t\n\t// address of the creator of the org\n\taddress addressBelongsTo;\n\tCertification[] certificationsOwned;\n\n\tfunction Org(string _name, address _addressBelongsTo) public\n\t{\n\t\tname = _name;\n\t\taddressBelongsTo = _addressBelongsTo;\n\t}\n\n\tfunction createNewCertificate(string _name, string _description)\n\t{\n\t    require(msg.sender == addressBelongsTo);\n\t\tCertification certificate = new Certification(_name, _description);\n\t\tcertificationsOwned.push(certificate);\n\t}\n\n\tfunction linkUserWithCertificate(User user, Certification certificate)\n\t{\n\t    require(msg.sender == addressBelongsTo);\n\t    // need to require that the certification is in the org's certificationsOwned\n\t    require(ownsCertification(certificate));\n\t\tuser.addToCertificationsRecieved(certificate);\n\t\tcertificate.addToRecievers(user);\n\t}\n\t\n\t// determine if certification is inside certificationsOwned\n\tfunction ownsCertification(Certification certificate) returns (bool)\n\t{\n\t    for (uint i = 0; i < certificationsOwned.length; i++)\n\t    {\n\t        if (sha256(certificationsOwned[i]) == sha256(certificate))\n\t        {\n\t            return true;\n\t        }\n\t    }\n\t    return false;\n\t}\n\t\n\tfunction viewFirstCertificate() public view returns (Certification)\n\t{\n\t    return certificationsOwned[0];\n\t}\n\t\n\tfunction viewAllCertificates() public view returns (Certification[])\n\t{\n\t    return certificationsOwned;\n\t}\n\n}\n\ncontract Certification\n{\n\tstring name;\n\tstring description;\n\tUser[] recievers;\n\n\tfunction Certification(string _name, string _description) public\n\t{\n\t\tname = _name;\n\t\tdescription = _description;\n\t}\n\n\tfunction addToRecievers(User user)\n\t{\n\t\trecievers.push(user);\n\t}\n\t\n\tfunction getName() returns (string)\n\t{\n\t    return name;\n\t}\n}\n\n",
  "sourcePath": "/Users/andrei/degreeProof/contracts/Certify.sol",
  "compiler": {
    "name": "solc",
    "version": "0.4.24+commit.e67f0147.Emscripten.clang"
  },
  "schemaVersion": "2.0.1",
  "updatedAt": "2018-10-21T08:41:14.818Z"
}